{
  "contractName": "NeoToken",
  "abi": [
    {
      "inputs": [],
      "stateMutability": "nonpayable",
      "type": "constructor"
    },
    {
      "anonymous": false,
      "inputs": [
        {
          "indexed": true,
          "internalType": "address",
          "name": "owner",
          "type": "address"
        },
        {
          "indexed": true,
          "internalType": "address",
          "name": "spender",
          "type": "address"
        },
        {
          "indexed": false,
          "internalType": "uint256",
          "name": "value",
          "type": "uint256"
        }
      ],
      "name": "Approval",
      "type": "event"
    },
    {
      "anonymous": false,
      "inputs": [
        {
          "indexed": false,
          "internalType": "uint256",
          "name": "id",
          "type": "uint256"
        },
        {
          "indexed": false,
          "internalType": "address",
          "name": "proposer",
          "type": "address"
        },
        {
          "indexed": false,
          "internalType": "string",
          "name": "description",
          "type": "string"
        },
        {
          "indexed": false,
          "internalType": "string",
          "name": "title",
          "type": "string"
        },
        {
          "indexed": false,
          "internalType": "uint256",
          "name": "dateOfCreation",
          "type": "uint256"
        }
      ],
      "name": "ProposalCreated",
      "type": "event"
    },
    {
      "anonymous": false,
      "inputs": [
        {
          "indexed": true,
          "internalType": "address",
          "name": "from",
          "type": "address"
        },
        {
          "indexed": true,
          "internalType": "address",
          "name": "to",
          "type": "address"
        },
        {
          "indexed": false,
          "internalType": "uint256",
          "name": "value",
          "type": "uint256"
        }
      ],
      "name": "Transfer",
      "type": "event"
    },
    {
      "anonymous": false,
      "inputs": [
        {
          "indexed": false,
          "internalType": "address",
          "name": "voter",
          "type": "address"
        },
        {
          "indexed": false,
          "internalType": "uint256",
          "name": "proposalId",
          "type": "uint256"
        },
        {
          "indexed": false,
          "internalType": "bool",
          "name": "support",
          "type": "bool"
        }
      ],
      "name": "VoteCast",
      "type": "event"
    },
    {
      "inputs": [],
      "name": "admin",
      "outputs": [
        {
          "internalType": "address",
          "name": "",
          "type": "address"
        }
      ],
      "stateMutability": "view",
      "type": "function",
      "constant": true
    },
    {
      "inputs": [],
      "name": "decimals",
      "outputs": [
        {
          "internalType": "uint8",
          "name": "",
          "type": "uint8"
        }
      ],
      "stateMutability": "view",
      "type": "function",
      "constant": true
    },
    {
      "inputs": [],
      "name": "name",
      "outputs": [
        {
          "internalType": "string",
          "name": "",
          "type": "string"
        }
      ],
      "stateMutability": "view",
      "type": "function",
      "constant": true
    },
    {
      "inputs": [],
      "name": "proposalCount",
      "outputs": [
        {
          "internalType": "uint256",
          "name": "",
          "type": "uint256"
        }
      ],
      "stateMutability": "view",
      "type": "function",
      "constant": true
    },
    {
      "inputs": [
        {
          "internalType": "uint256",
          "name": "",
          "type": "uint256"
        }
      ],
      "name": "proposals",
      "outputs": [
        {
          "internalType": "uint256",
          "name": "id",
          "type": "uint256"
        },
        {
          "internalType": "address",
          "name": "proposer",
          "type": "address"
        },
        {
          "internalType": "uint256",
          "name": "favorVotes",
          "type": "uint256"
        },
        {
          "internalType": "uint256",
          "name": "againstVotes",
          "type": "uint256"
        },
        {
          "internalType": "bool",
          "name": "canceled",
          "type": "bool"
        },
        {
          "internalType": "bool",
          "name": "announced",
          "type": "bool"
        },
        {
          "internalType": "uint256",
          "name": "voterCount",
          "type": "uint256"
        },
        {
          "internalType": "string",
          "name": "description",
          "type": "string"
        },
        {
          "internalType": "string",
          "name": "title",
          "type": "string"
        },
        {
          "internalType": "uint256",
          "name": "dateOfCreation",
          "type": "uint256"
        },
        {
          "internalType": "uint256",
          "name": "deadLine",
          "type": "uint256"
        },
        {
          "internalType": "enum NeoToken.ProposalState",
          "name": "res",
          "type": "uint8"
        }
      ],
      "stateMutability": "view",
      "type": "function",
      "constant": true
    },
    {
      "inputs": [],
      "name": "symbol",
      "outputs": [
        {
          "internalType": "string",
          "name": "",
          "type": "string"
        }
      ],
      "stateMutability": "view",
      "type": "function",
      "constant": true
    },
    {
      "inputs": [],
      "name": "totalSupply",
      "outputs": [
        {
          "internalType": "uint256",
          "name": "",
          "type": "uint256"
        }
      ],
      "stateMutability": "view",
      "type": "function",
      "constant": true
    },
    {
      "inputs": [
        {
          "internalType": "address",
          "name": "account",
          "type": "address"
        }
      ],
      "name": "balanceOf",
      "outputs": [
        {
          "internalType": "uint256",
          "name": "",
          "type": "uint256"
        }
      ],
      "stateMutability": "view",
      "type": "function",
      "constant": true
    },
    {
      "inputs": [
        {
          "internalType": "address",
          "name": "to",
          "type": "address"
        },
        {
          "internalType": "uint256",
          "name": "amount",
          "type": "uint256"
        }
      ],
      "name": "transfer",
      "outputs": [
        {
          "internalType": "bool",
          "name": "",
          "type": "bool"
        }
      ],
      "stateMutability": "nonpayable",
      "type": "function"
    },
    {
      "inputs": [
        {
          "internalType": "address",
          "name": "spender",
          "type": "address"
        },
        {
          "internalType": "uint256",
          "name": "amount",
          "type": "uint256"
        }
      ],
      "name": "approve",
      "outputs": [
        {
          "internalType": "bool",
          "name": "",
          "type": "bool"
        }
      ],
      "stateMutability": "nonpayable",
      "type": "function"
    },
    {
      "inputs": [
        {
          "internalType": "address",
          "name": "owner",
          "type": "address"
        },
        {
          "internalType": "address",
          "name": "spender",
          "type": "address"
        }
      ],
      "name": "allowance",
      "outputs": [
        {
          "internalType": "uint256",
          "name": "",
          "type": "uint256"
        }
      ],
      "stateMutability": "view",
      "type": "function",
      "constant": true
    },
    {
      "inputs": [
        {
          "internalType": "address",
          "name": "from",
          "type": "address"
        },
        {
          "internalType": "address",
          "name": "to",
          "type": "address"
        },
        {
          "internalType": "uint256",
          "name": "amount",
          "type": "uint256"
        }
      ],
      "name": "transferFrom",
      "outputs": [
        {
          "internalType": "bool",
          "name": "",
          "type": "bool"
        }
      ],
      "stateMutability": "nonpayable",
      "type": "function"
    },
    {
      "inputs": [
        {
          "internalType": "string",
          "name": "proposalTitle",
          "type": "string"
        },
        {
          "internalType": "string",
          "name": "proposalDescription",
          "type": "string"
        }
      ],
      "name": "createProposal",
      "outputs": [],
      "stateMutability": "nonpayable",
      "type": "function"
    },
    {
      "inputs": [
        {
          "internalType": "uint256",
          "name": "proposalId",
          "type": "uint256"
        },
        {
          "internalType": "address",
          "name": "voter",
          "type": "address"
        }
      ],
      "name": "getReceipt",
      "outputs": [
        {
          "components": [
            {
              "internalType": "bool",
              "name": "isVoted",
              "type": "bool"
            },
            {
              "internalType": "bool",
              "name": "isSupport",
              "type": "bool"
            },
            {
              "internalType": "uint256",
              "name": "votes",
              "type": "uint256"
            }
          ],
          "internalType": "struct NeoToken.VoteReceipt",
          "name": "",
          "type": "tuple"
        }
      ],
      "stateMutability": "view",
      "type": "function",
      "constant": true
    },
    {
      "inputs": [
        {
          "internalType": "uint256",
          "name": "proposalId",
          "type": "uint256"
        }
      ],
      "name": "stateOfTheProposal",
      "outputs": [
        {
          "internalType": "enum NeoToken.ProposalState",
          "name": "",
          "type": "uint8"
        }
      ],
      "stateMutability": "nonpayable",
      "type": "function"
    },
    {
      "inputs": [
        {
          "internalType": "uint256",
          "name": "proposalId",
          "type": "uint256"
        },
        {
          "internalType": "bool",
          "name": "vote",
          "type": "bool"
        }
      ],
      "name": "voteToProposal",
      "outputs": [],
      "stateMutability": "nonpayable",
      "type": "function"
    },
    {
      "inputs": [
        {
          "internalType": "uint256",
          "name": "proposalId",
          "type": "uint256"
        }
      ],
      "name": "proposalResult",
      "outputs": [],
      "stateMutability": "nonpayable",
      "type": "function"
    },
    {
      "inputs": [
        {
          "internalType": "uint256",
          "name": "proposalId",
          "type": "uint256"
        }
      ],
      "name": "cancelProposal",
      "outputs": [],
      "stateMutability": "nonpayable",
      "type": "function"
    },
    {
      "inputs": [
        {
          "internalType": "uint256",
          "name": "proposalId",
          "type": "uint256"
        }
      ],
      "name": "getVotes",
      "outputs": [
        {
          "components": [
            {
              "internalType": "address",
              "name": "voterAddress",
              "type": "address"
            },
            {
              "internalType": "bool",
              "name": "support",
              "type": "bool"
            },
            {
              "internalType": "uint256",
              "name": "votes",
              "type": "uint256"
            }
          ],
          "internalType": "struct NeoToken.Vote[]",
          "name": "",
          "type": "tuple[]"
        }
      ],
      "stateMutability": "view",
      "type": "function",
      "constant": true
    }
  ],
  "bytecode": "0x608060405269152d02c7e14af68000006000556103e860015534801561002457600080fd5b50600054600460003373ffffffffffffffffffffffffffffffffffffffff1673ffffffffffffffffffffffffffffffffffffffff1681526020019081526020016000208190555033600260006101000a81548173ffffffffffffffffffffffffffffffffffffffff021916908373ffffffffffffffffffffffffffffffffffffffff16021790555061363f806100bb6000396000f3fe608060405234801561001057600080fd5b50600436106101215760003560e01c806370a08231116100ad578063dd62ed3e11610071578063dd62ed3e1461033b578063e0a8f6f51461036b578063e23a9a5214610387578063f851a440146103b7578063ff981099146103d557610121565b806370a082311461028357806395d89b41146102b3578063a9059cbb146102d1578063d397b4f714610301578063da35c6641461031d57610121565b806318160ddd116100f457806318160ddd146101cb578063223d78dd146101e957806323b872dd14610219578063313ce5671461024957806365e481e21461026757610121565b8063013cf08b1461012657806306fdde0314610161578063095ea7b31461017f5780631022b30b146101af575b600080fd5b610140600480360381019061013b9190611f7c565b610405565b6040516101589c9b9a9998979695949392919061211b565b60405180910390f35b6101696105bc565b60405161017691906121e3565b60405180910390f35b61019960048036038101906101949190612231565b6105f5565b6040516101a69190612271565b60405180910390f35b6101c960048036038101906101c49190611f7c565b6106e7565b005b6101d36108c3565b6040516101e0919061228c565b60405180910390f35b61020360048036038101906101fe9190611f7c565b6108cc565b60405161021091906122a7565b60405180910390f35b610233600480360381019061022e91906122c2565b610bab565b6040516102409190612271565b60405180910390f35b610251610f97565b60405161025e9190612331565b60405180910390f35b610281600480360381019061027c9190612481565b610f9c565b005b61029d600480360381019061029891906124f9565b611259565b6040516102aa919061228c565b60405180910390f35b6102bb6112a2565b6040516102c891906121e3565b60405180910390f35b6102eb60048036038101906102e69190612231565b6112db565b6040516102f89190612271565b60405180910390f35b61031b60048036038101906103169190612552565b6114f8565b005b6103256118df565b604051610332919061228c565b60405180910390f35b61035560048036038101906103509190612592565b6118e5565b604051610362919061228c565b60405180910390f35b61038560048036038101906103809190611f7c565b61196c565b005b6103a1600480360381019061039c91906125d2565b611b42565b6040516103ae9190612672565b60405180910390f35b6103bf611bed565b6040516103cc919061268d565b60405180910390f35b6103ef60048036038101906103ea9190611f7c565b611c13565b6040516103fc91906127a8565b60405180910390f35b60066020528060005260406000206000915090508060000154908060010160009054906101000a900473ffffffffffffffffffffffffffffffffffffffff16908060020154908060030154908060040160009054906101000a900460ff16908060040160019054906101000a900460ff169080600501549080600601805461048c906127f9565b80601f01602080910402602001604051908101604052809291908181526020018280546104b8906127f9565b80156105055780601f106104da57610100808354040283529160200191610505565b820191906000526020600020905b8154815290600101906020018083116104e857829003601f168201915b50505050509080600701805461051a906127f9565b80601f0160208091040260200160405190810160405280929190818152602001828054610546906127f9565b80156105935780601f1061056857610100808354040283529160200191610593565b820191906000526020600020905b81548152906001019060200180831161057657829003601f168201915b50505050509080600801549080600901549080600a0160009054906101000a900460ff1690508c565b6040518060400160405280600881526020017f4e454f544f4b454e00000000000000000000000000000000000000000000000081525081565b600081600560003373ffffffffffffffffffffffffffffffffffffffff1673ffffffffffffffffffffffffffffffffffffffff16815260200190815260200160002060008573ffffffffffffffffffffffffffffffffffffffff1673ffffffffffffffffffffffffffffffffffffffff168152602001908152602001600020819055508273ffffffffffffffffffffffffffffffffffffffff163373ffffffffffffffffffffffffffffffffffffffff167f8c5be1e5ebec7d5bd14f71427d1e84f3dd0314c0f7b2291e5b200ac8c7c3b925846040516106d5919061228c565b60405180910390a36001905092915050565b80600354101580156106f95750600081115b610738576040517f08c379a000000000000000000000000000000000000000000000000000000000815260040161072f9061289c565b60405180910390fd5b600060066000838152602001908152602001600020905080600901544211610795576040517f08c379a000000000000000000000000000000000000000000000000000000000815260040161078c9061292e565b60405180910390fd5b60006107a0836108cc565b9050600160038111156107b6576107b56120a4565b5b8160038111156107c9576107c86120a4565b5b03610809576040517f08c379a0000000000000000000000000000000000000000000000000000000008152600401610800906129c0565b60405180910390fd5b6002600381111561081d5761081c6120a4565b5b8160038111156108305761082f6120a4565b5b14158015610862575060038081111561084c5761084b6120a4565b5b81600381111561085f5761085e6120a4565b5b14155b6108a1576040517f08c379a000000000000000000000000000000000000000000000000000000000815260040161089890612a52565b60405180910390fd5b60018260040160016101000a81548160ff021916908315150217905550505050565b60008054905090565b600080600083600354101580156108e35750600084115b610922576040517f08c379a000000000000000000000000000000000000000000000000000000000815260040161091990612abe565b60405180910390fd5b60006006600086815260200190815260200160002090508060040160009054906101000a900460ff161561095c5760019350505050610ba6565b8060040160019054906101000a900460ff1615610b9e5760005b8160050154811015610b23576000600760008881526020019081526020016000206000600860008a8152602001908152602001600020600085815260200190815260200160002060009054906101000a900473ffffffffffffffffffffffffffffffffffffffff1673ffffffffffffffffffffffffffffffffffffffff1673ffffffffffffffffffffffffffffffffffffffff1681526020019081526020016000209050600115158160000160019054906101000a900460ff16151503610a9657610a8460086000898152602001908152602001600020600084815260200190815260200160002060009054906101000a900473ffffffffffffffffffffffffffffffffffffffff16611259565b85610a8f9190612b0d565b9450610b0f565b600015158160000160019054906101000a900460ff16151503610b0e57610b0060086000898152602001908152602001600020600084815260200190815260200160002060009054906101000a900473ffffffffffffffffffffffffffffffffffffffff16611259565b84610b0b9190612b0d565b93505b5b508080610b1b90612b41565b915050610976565b5081831115610b6557600281600a0160006101000a81548160ff02191690836003811115610b5457610b536120a4565b5b021790555060029350505050610ba6565b600381600a0160006101000a81548160ff02191690836003811115610b8d57610b8c6120a4565b5b021790555060039350505050610ba6565b600093505050505b919050565b6000600560008573ffffffffffffffffffffffffffffffffffffffff1673ffffffffffffffffffffffffffffffffffffffff16815260200190815260200160002060003373ffffffffffffffffffffffffffffffffffffffff1673ffffffffffffffffffffffffffffffffffffffff16815260200190815260200160002054821115610c6c576040517f08c379a0000000000000000000000000000000000000000000000000000000008152600401610c6390612bfb565b60405180910390fd5b600460008573ffffffffffffffffffffffffffffffffffffffff1673ffffffffffffffffffffffffffffffffffffffff16815260200190815260200160002054821115610cee576040517f08c379a0000000000000000000000000000000000000000000000000000000008152600401610ce590612c67565b60405180910390fd5b610d4082600460008773ffffffffffffffffffffffffffffffffffffffff1673ffffffffffffffffffffffffffffffffffffffff16815260200190815260200160002054611e8190919063ffffffff16565b600460008673ffffffffffffffffffffffffffffffffffffffff1673ffffffffffffffffffffffffffffffffffffffff16815260200190815260200160002081905550610e1282600560008773ffffffffffffffffffffffffffffffffffffffff1673ffffffffffffffffffffffffffffffffffffffff16815260200190815260200160002060003373ffffffffffffffffffffffffffffffffffffffff1673ffffffffffffffffffffffffffffffffffffffff16815260200190815260200160002054611e8190919063ffffffff16565b600560008673ffffffffffffffffffffffffffffffffffffffff1673ffffffffffffffffffffffffffffffffffffffff16815260200190815260200160002060003373ffffffffffffffffffffffffffffffffffffffff1673ffffffffffffffffffffffffffffffffffffffff16815260200190815260200160002081905550610ee482600460008673ffffffffffffffffffffffffffffffffffffffff1673ffffffffffffffffffffffffffffffffffffffff16815260200190815260200160002054611ea890919063ffffffff16565b600460008573ffffffffffffffffffffffffffffffffffffffff1673ffffffffffffffffffffffffffffffffffffffff168152602001908152602001600020819055508273ffffffffffffffffffffffffffffffffffffffff168473ffffffffffffffffffffffffffffffffffffffff167fddf252ad1be2c89b69c2b068fc378daa952ba7f163c4a11628f55a4df523b3ef84604051610f84919061228c565b60405180910390a3600190509392505050565b601281565b600154600460003373ffffffffffffffffffffffffffffffffffffffff1673ffffffffffffffffffffffffffffffffffffffff168152602001908152602001600020541015611020576040517f08c379a000000000000000000000000000000000000000000000000000000000815260040161101790612d1f565b60405180910390fd5b6003600081548092919061103390612b41565b9190505550600060405180610180016040528060035481526020013373ffffffffffffffffffffffffffffffffffffffff1681526020016000815260200160008152602001600015158152602001600015158152602001600081526020018381526020018481526020014281526020016078426110b09190612b0d565b8152602001600060038111156110c9576110c86120a4565b5b81525090508060066000836000015181526020019081526020016000206000820151816000015560208201518160010160006101000a81548173ffffffffffffffffffffffffffffffffffffffff021916908373ffffffffffffffffffffffffffffffffffffffff160217905550604082015181600201556060820151816003015560808201518160040160006101000a81548160ff02191690831515021790555060a08201518160040160016101000a81548160ff02191690831515021790555060c0820151816005015560e08201518160060190816111aa9190612eeb565b506101008201518160070190816111c19190612eeb565b506101208201518160080155610140820151816009015561016082015181600a0160006101000a81548160ff02191690836003811115611204576112036120a4565b5b02179055509050507fbd04b5479c6dd97d2cc7727f90a20fe21ccf7121f4f9fdc04a755ee528efeb44816000015133848685610120015160405161124c959493929190612fbd565b60405180910390a1505050565b6000600460008373ffffffffffffffffffffffffffffffffffffffff1673ffffffffffffffffffffffffffffffffffffffff168152602001908152602001600020549050919050565b6040518060400160405280600381526020017f4e454f000000000000000000000000000000000000000000000000000000000081525081565b6000600460003373ffffffffffffffffffffffffffffffffffffffff1673ffffffffffffffffffffffffffffffffffffffff1681526020019081526020016000205482111561135f576040517f08c379a000000000000000000000000000000000000000000000000000000000815260040161135690613090565b60405180910390fd5b6113b182600460003373ffffffffffffffffffffffffffffffffffffffff1673ffffffffffffffffffffffffffffffffffffffff16815260200190815260200160002054611e8190919063ffffffff16565b600460003373ffffffffffffffffffffffffffffffffffffffff1673ffffffffffffffffffffffffffffffffffffffff1681526020019081526020016000208190555061144682600460008673ffffffffffffffffffffffffffffffffffffffff1673ffffffffffffffffffffffffffffffffffffffff16815260200190815260200160002054611ea890919063ffffffff16565b600460008573ffffffffffffffffffffffffffffffffffffffff1673ffffffffffffffffffffffffffffffffffffffff168152602001908152602001600020819055508273ffffffffffffffffffffffffffffffffffffffff163373ffffffffffffffffffffffffffffffffffffffff167fddf252ad1be2c89b69c2b068fc378daa952ba7f163c4a11628f55a4df523b3ef846040516114e6919061228c565b60405180910390a36001905092915050565b816003541015801561150a5750600082115b611549576040517f08c379a000000000000000000000000000000000000000000000000000000000815260040161154090613122565b60405180910390fd5b600060066000848152602001908152602001600020905080600901544211156115a7576040517f08c379a000000000000000000000000000000000000000000000000000000000815260040161159e906131b4565b60405180910390fd5b6000600460003373ffffffffffffffffffffffffffffffffffffffff1673ffffffffffffffffffffffffffffffffffffffff16815260200190815260200160002054101561162a576040517f08c379a000000000000000000000000000000000000000000000000000000000815260040161162190613246565b60405180910390fd5b60006007600085815260200190815260200160002060003373ffffffffffffffffffffffffffffffffffffffff1673ffffffffffffffffffffffffffffffffffffffff1681526020019081526020016000209050600015158160000160009054906101000a900460ff161515146116d6576040517f08c379a00000000000000000000000000000000000000000000000000000000081526004016116cd906132d8565b60405180910390fd5b60018160000160006101000a81548160ff021916908315150217905550828160000160016101000a81548160ff02191690831515021790555060018160010181905550336008600086815260200190815260200160002060008460050154815260200190815260200160002060006101000a81548173ffffffffffffffffffffffffffffffffffffffff021916908373ffffffffffffffffffffffffffffffffffffffff16021790555081600501600081548092919061179590612b41565b919050555082156117c5576117b860018360020154611ea890919063ffffffff16565b82600201819055506117e6565b6117dd60018360030154611ea890919063ffffffff16565b82600301819055505b806007600086815260200190815260200160002060003373ffffffffffffffffffffffffffffffffffffffff1673ffffffffffffffffffffffffffffffffffffffff1681526020019081526020016000206000820160009054906101000a900460ff168160000160006101000a81548160ff0219169083151502179055506000820160019054906101000a900460ff168160000160016101000a81548160ff021916908315150217905550600182015481600101559050507fd356173ae8eeea8691aee4c1be712c314a975a3d43ebc48b08ca54d0dac912283385856040516118d1939291906132f8565b60405180910390a150505050565b60035481565b6000600560008473ffffffffffffffffffffffffffffffffffffffff1673ffffffffffffffffffffffffffffffffffffffff16815260200190815260200160002060008373ffffffffffffffffffffffffffffffffffffffff1673ffffffffffffffffffffffffffffffffffffffff16815260200190815260200160002054905092915050565b806003541015801561197e5750600081115b6119bd576040517f08c379a00000000000000000000000000000000000000000000000000000000081526004016119b4906133a1565b60405180910390fd5b60006006600083815260200190815260200160002090508060010160009054906101000a900473ffffffffffffffffffffffffffffffffffffffff1673ffffffffffffffffffffffffffffffffffffffff163373ffffffffffffffffffffffffffffffffffffffff1614611a66576040517f08c379a0000000000000000000000000000000000000000000000000000000008152600401611a5d90613433565b60405180910390fd5b80600901544210611aac576040517f08c379a0000000000000000000000000000000000000000000000000000000008152600401611aa3906134c5565b60405180910390fd5b6000611ab7836108cc565b905060016003811115611acd57611acc6120a4565b5b816003811115611ae057611adf6120a4565b5b03611b20576040517f08c379a0000000000000000000000000000000000000000000000000000000008152600401611b1790613557565b60405180910390fd5b60018260040160006101000a81548160ff021916908315150217905550505050565b611b4a611ed4565b6007600084815260200190815260200160002060008373ffffffffffffffffffffffffffffffffffffffff1673ffffffffffffffffffffffffffffffffffffffff1681526020019081526020016000206040518060600160405290816000820160009054906101000a900460ff161515151581526020016000820160019054906101000a900460ff16151515158152602001600182015481525050905092915050565b600260009054906101000a900473ffffffffffffffffffffffffffffffffffffffff1681565b606060006006600084815260200190815260200160002060050154905060008167ffffffffffffffff811115611c4c57611c4b612356565b5b604051908082528060200260200182016040528015611c8557816020015b611c72611ef9565b815260200190600190039081611c6a5790505b50905060005b82811015611e7657604051806060016040528060086000888152602001908152602001600020600084815260200190815260200160002060009054906101000a900473ffffffffffffffffffffffffffffffffffffffff1673ffffffffffffffffffffffffffffffffffffffff168152602001600760008881526020019081526020016000206000600860008a8152602001908152602001600020600086815260200190815260200160002060009054906101000a900473ffffffffffffffffffffffffffffffffffffffff1673ffffffffffffffffffffffffffffffffffffffff1673ffffffffffffffffffffffffffffffffffffffff16815260200190815260200160002060000160019054906101000a900460ff1615158152602001600760008881526020019081526020016000206000600860008a8152602001908152602001600020600086815260200190815260200160002060009054906101000a900473ffffffffffffffffffffffffffffffffffffffff1673ffffffffffffffffffffffffffffffffffffffff1673ffffffffffffffffffffffffffffffffffffffff16815260200190815260200160002060010154815250828281518110611e5857611e57613577565b5b60200260200101819052508080611e6e90612b41565b915050611c8b565b508092505050919050565b600082821115611e9457611e936135a6565b5b8183611ea091906135d5565b905092915050565b6000808284611eb79190612b0d565b905083811015611eca57611ec96135a6565b5b8091505092915050565b6040518060600160405280600015158152602001600015158152602001600081525090565b6040518060600160405280600073ffffffffffffffffffffffffffffffffffffffff168152602001600015158152602001600081525090565b6000604051905090565b600080fd5b600080fd5b6000819050919050565b611f5981611f46565b8114611f6457600080fd5b50565b600081359050611f7681611f50565b92915050565b600060208284031215611f9257611f91611f3c565b5b6000611fa084828501611f67565b91505092915050565b611fb281611f46565b82525050565b600073ffffffffffffffffffffffffffffffffffffffff82169050919050565b6000611fe382611fb8565b9050919050565b611ff381611fd8565b82525050565b60008115159050919050565b61200e81611ff9565b82525050565b600081519050919050565b600082825260208201905092915050565b60005b8381101561204e578082015181840152602081019050612033565b60008484015250505050565b6000601f19601f8301169050919050565b600061207682612014565b612080818561201f565b9350612090818560208601612030565b6120998161205a565b840191505092915050565b7f4e487b7100000000000000000000000000000000000000000000000000000000600052602160045260246000fd5b600481106120e4576120e36120a4565b5b50565b60008190506120f5826120d3565b919050565b6000612105826120e7565b9050919050565b612115816120fa565b82525050565b600061018082019050612131600083018f611fa9565b61213e602083018e611fea565b61214b604083018d611fa9565b612158606083018c611fa9565b612165608083018b612005565b61217260a083018a612005565b61217f60c0830189611fa9565b81810360e0830152612191818861206b565b90508181036101008301526121a6818761206b565b90506121b6610120830186611fa9565b6121c4610140830185611fa9565b6121d261016083018461210c565b9d9c50505050505050505050505050565b600060208201905081810360008301526121fd818461206b565b905092915050565b61220e81611fd8565b811461221957600080fd5b50565b60008135905061222b81612205565b92915050565b6000806040838503121561224857612247611f3c565b5b60006122568582860161221c565b925050602061226785828601611f67565b9150509250929050565b60006020820190506122866000830184612005565b92915050565b60006020820190506122a16000830184611fa9565b92915050565b60006020820190506122bc600083018461210c565b92915050565b6000806000606084860312156122db576122da611f3c565b5b60006122e98682870161221c565b93505060206122fa8682870161221c565b925050604061230b86828701611f67565b9150509250925092565b600060ff82169050919050565b61232b81612315565b82525050565b60006020820190506123466000830184612322565b92915050565b600080fd5b600080fd5b7f4e487b7100000000000000000000000000000000000000000000000000000000600052604160045260246000fd5b61238e8261205a565b810181811067ffffffffffffffff821117156123ad576123ac612356565b5b80604052505050565b60006123c0611f32565b90506123cc8282612385565b919050565b600067ffffffffffffffff8211156123ec576123eb612356565b5b6123f58261205a565b9050602081019050919050565b82818337600083830152505050565b600061242461241f846123d1565b6123b6565b9050828152602081018484840111156124405761243f612351565b5b61244b848285612402565b509392505050565b600082601f8301126124685761246761234c565b5b8135612478848260208601612411565b91505092915050565b6000806040838503121561249857612497611f3c565b5b600083013567ffffffffffffffff8111156124b6576124b5611f41565b5b6124c285828601612453565b925050602083013567ffffffffffffffff8111156124e3576124e2611f41565b5b6124ef85828601612453565b9150509250929050565b60006020828403121561250f5761250e611f3c565b5b600061251d8482850161221c565b91505092915050565b61252f81611ff9565b811461253a57600080fd5b50565b60008135905061254c81612526565b92915050565b6000806040838503121561256957612568611f3c565b5b600061257785828601611f67565b92505060206125888582860161253d565b9150509250929050565b600080604083850312156125a9576125a8611f3c565b5b60006125b78582860161221c565b92505060206125c88582860161221c565b9150509250929050565b600080604083850312156125e9576125e8611f3c565b5b60006125f785828601611f67565b92505060206126088582860161221c565b9150509250929050565b61261b81611ff9565b82525050565b61262a81611f46565b82525050565b6060820160008201516126466000850182612612565b5060208201516126596020850182612612565b50604082015161266c6040850182612621565b50505050565b60006060820190506126876000830184612630565b92915050565b60006020820190506126a26000830184611fea565b92915050565b600081519050919050565b600082825260208201905092915050565b6000819050602082019050919050565b6126dd81611fd8565b82525050565b6060820160008201516126f960008501826126d4565b50602082015161270c6020850182612612565b50604082015161271f6040850182612621565b50505050565b600061273183836126e3565b60608301905092915050565b6000602082019050919050565b6000612755826126a8565b61275f81856126b3565b935061276a836126c4565b8060005b8381101561279b5781516127828882612725565b975061278d8361273d565b92505060018101905061276e565b5085935050505092915050565b600060208201905081810360008301526127c2818461274a565b905092915050565b7f4e487b7100000000000000000000000000000000000000000000000000000000600052602260045260246000fd5b6000600282049050600182168061281157607f821691505b602082108103612824576128236127ca565b5b50919050565b7f6465636c617265526573756c743a20696e76616c69642070726f706f73616c2060008201527f6964000000000000000000000000000000000000000000000000000000000000602082015250565b600061288660228361201f565b91506128918261282a565b604082019050919050565b600060208201905081810360008301526128b581612879565b9050919050565b7f6465636c617265526573756c743a20446561644c696e6520686173206e6f742060008201527f7965742070617373656400000000000000000000000000000000000000000000602082015250565b6000612918602a8361201f565b9150612923826128bc565b604082019050919050565b600060208201905081810360008301526129478161290b565b9050919050565b7f6465636c617265526573756c743a2050726f736f73616c2069732063616e636560008201527f6c65640000000000000000000000000000000000000000000000000000000000602082015250565b60006129aa60238361201f565b91506129b58261294e565b604082019050919050565b600060208201905081810360008301526129d98161299d565b9050919050565b7f6465636c617265526573756c743a20526573756c7420616c726561647920616e60008201527f6e6f756e63656400000000000000000000000000000000000000000000000000602082015250565b6000612a3c60278361201f565b9150612a47826129e0565b604082019050919050565b60006020820190508181036000830152612a6b81612a2f565b9050919050565b7f73746174653a20696e76616c69642070726f706f73616c206964000000000000600082015250565b6000612aa8601a8361201f565b9150612ab382612a72565b602082019050919050565b60006020820190508181036000830152612ad781612a9b565b9050919050565b7f4e487b7100000000000000000000000000000000000000000000000000000000600052601160045260246000fd5b6000612b1882611f46565b9150612b2383611f46565b9250828201905080821115612b3b57612b3a612ade565b5b92915050565b6000612b4c82611f46565b91507fffffffffffffffffffffffffffffffffffffffffffffffffffffffffffffffff8203612b7e57612b7d612ade565b5b600182019050919050565b7f7472616e7366657246726f6d3a4e6f7420416c6c6f77656420746f207472616e60008201527f7366657200000000000000000000000000000000000000000000000000000000602082015250565b6000612be560248361201f565b9150612bf082612b89565b604082019050919050565b60006020820190508181036000830152612c1481612bd8565b9050919050565b7f7472616e7366657246726f6d3a496e73756666696369656e7420746f6b656e73600082015250565b6000612c5160208361201f565b9150612c5c82612c1b565b602082019050919050565b60006020820190508181036000830152612c8081612c44565b9050919050565b7f63726561746550726f706f73616c3a204d7573742068617665206d6f7265207460008201527f68616e2031303030204e454f20546f6b656e20746f206372656174652070726f60208201527f706f73616c730000000000000000000000000000000000000000000000000000604082015250565b6000612d0960468361201f565b9150612d1482612c87565b606082019050919050565b60006020820190508181036000830152612d3881612cfc565b9050919050565b60008190508160005260206000209050919050565b60006020601f8301049050919050565b600082821b905092915050565b600060088302612da17fffffffffffffffffffffffffffffffffffffffffffffffffffffffffffffffff82612d64565b612dab8683612d64565b95508019841693508086168417925050509392505050565b6000819050919050565b6000612de8612de3612dde84611f46565b612dc3565b611f46565b9050919050565b6000819050919050565b612e0283612dcd565b612e16612e0e82612def565b848454612d71565b825550505050565b600090565b612e2b612e1e565b612e36818484612df9565b505050565b5b81811015612e5a57612e4f600082612e23565b600181019050612e3c565b5050565b601f821115612e9f57612e7081612d3f565b612e7984612d54565b81016020851015612e88578190505b612e9c612e9485612d54565b830182612e3b565b50505b505050565b600082821c905092915050565b6000612ec260001984600802612ea4565b1980831691505092915050565b6000612edb8383612eb1565b9150826002028217905092915050565b612ef482612014565b67ffffffffffffffff811115612f0d57612f0c612356565b5b612f1782546127f9565b612f22828285612e5e565b600060209050601f831160018114612f555760008415612f43578287015190505b612f4d8582612ecf565b865550612fb5565b601f198416612f6386612d3f565b60005b82811015612f8b57848901518255600182019150602085019450602081019050612f66565b86831015612fa85784890151612fa4601f891682612eb1565b8355505b6001600288020188555050505b505050505050565b600060a082019050612fd26000830188611fa9565b612fdf6020830187611fea565b8181036040830152612ff1818661206b565b90508181036060830152613005818561206b565b90506130146080830184611fa9565b9695505050505050565b7f7472616e736665723a20496e73756666696369656e7420746f6b656e7320746f60008201527f207472616e736665720000000000000000000000000000000000000000000000602082015250565b600061307a60298361201f565b91506130858261301e565b604082019050919050565b600060208201905081810360008301526130a98161306d565b9050919050565b7f766f7465546f50726f706f73616c3a20696e76616c69642070726f706f73616c60008201527f2069640000000000000000000000000000000000000000000000000000000000602082015250565b600061310c60238361201f565b9150613117826130b0565b604082019050919050565b6000602082019050818103600083015261313b816130ff565b9050919050565b7f766f7465546f50726f706f73616c3a20566f74696e6720706572696f6420686160008201527f7320656e64656400000000000000000000000000000000000000000000000000602082015250565b600061319e60278361201f565b91506131a982613142565b604082019050919050565b600060208201905081810360008301526131cd81613191565b9050919050565b7f766f7465546f50726f706f73616c3a205573657220646f65736e27742068617660008201527f652073756666696369656e7420746f6b656e20746f20766f7465000000000000602082015250565b6000613230603a8361201f565b915061323b826131d4565b604082019050919050565b6000602082019050818103600083015261325f81613223565b9050919050565b7f766f7465546f50726f706f73616c3a20596f752063616e277420766f7465206160008201527f6761696e00000000000000000000000000000000000000000000000000000000602082015250565b60006132c260248361201f565b91506132cd82613266565b604082019050919050565b600060208201905081810360008301526132f1816132b5565b9050919050565b600060608201905061330d6000830186611fea565b61331a6020830185611fa9565b6133276040830184612005565b949350505050565b7f63616e63656c50726f706f73616c3a2070726f706f73616c206964206973206960008201527f6e76616c69640000000000000000000000000000000000000000000000000000602082015250565b600061338b60268361201f565b91506133968261332f565b604082019050919050565b600060208201905081810360008301526133ba8161337e565b9050919050565b7f63616e63656c50726f706f73616c3a206f6e6c792061646d696e2063616e206360008201527f616e63656c207468652070726f706f73616c0000000000000000000000000000602082015250565b600061341d60328361201f565b9150613428826133c1565b604082019050919050565b6000602082019050818103600083015261344c81613410565b9050919050565b7f63616e63656c50726f706f73616c3a206e6f742061626c6520746f2063616e6360008201527f656c2c20446561644c696e652063726f73736564000000000000000000000000602082015250565b60006134af60348361201f565b91506134ba82613453565b604082019050919050565b600060208201905081810360008301526134de816134a2565b9050919050565b7f6465636c617265526573756c743a20416c726561647920696e2063616e63656c60008201527f2073746174650000000000000000000000000000000000000000000000000000602082015250565b600061354160268361201f565b915061354c826134e5565b604082019050919050565b6000602082019050818103600083015261357081613534565b9050919050565b7f4e487b7100000000000000000000000000000000000000000000000000000000600052603260045260246000fd5b7f4e487b7100000000000000000000000000000000000000000000000000000000600052600160045260246000fd5b60006135e082611f46565b91506135eb83611f46565b925082820390508181111561360357613602612ade565b5b9291505056fea264697066735822122037d0b7675dfffd8c07f5463a4a625472e61722f10ac3e3566b923dd6f2e3623564736f6c63430008110033",
  "immutableReferences": {},
  "source": "// SPDX-License-Identifier: MIT\npragma solidity ^0.8.6;\n\ninterface IERC20 {\n    /**\n     * @dev Emitted when `value` tokens are moved from one account (`from`) to\n     * another (`to`).\n     *\n     * Note that `value` may be zero.\n     */\n    event Transfer(address indexed from, address indexed to, uint256 value);\n\n    /**\n     * @dev Emitted when the allowance of a `spender` for an `owner` is set by\n     * a call to {approve}. `value` is the new allowance.\n     */\n    event Approval( address indexed owner, address indexed spender, uint256 value);\n\n    /**\n     * @dev Returns the amount of tokens in existence.\n     */\n    function totalSupply() external view returns (uint256);\n\n    /**\n     * @dev Returns the amount of tokens owned by `account`.\n     */\n    function balanceOf(address account) external view returns (uint256);\n\n    /**\n     * @dev Moves `amount` tokens from the caller's account to `to`.\n     *\n     * Returns a boolean value indicating whether the operation succeeded.\n     *\n     * Emits a {Transfer} event.\n     */\n    function transfer(address to, uint256 amount) external returns (bool);\n\n    /**\n     * @dev Moves `amount` tokens from `from` to `to` using the\n     * allowance mechanism. `amount` is then deducted from the caller's\n     * allowance.\n     *\n     * Returns a boolean value indicating whether the operation succeeded.\n     *\n     * Emits a {Transfer} event.\n     */\n    function transferFrom(address from, address to, uint256 amount) external returns (bool);\n\n    /**\n     * @dev Returns the remaining number of tokens that `spender` will be\n     * allowed to spend on behalf of `owner` through {transferFrom}. This is\n     * zero by default.\n     *\n     * This value changes when {approve} or {transferFrom} are called.\n     */\n    function allowance(address owner, address spender) external view returns (uint256);\n\n    /**\n     * @dev Sets `amount` as the allowance of `spender` over the caller's tokens.\n     *\n     * Returns a boolean value indicating whether the operation succeeded.\n     *\n     * IMPORTANT: Beware that changing an allowance with this method brings the risk\n     * that someone may use both the old and the new allowance by unfortunate\n     * transaction ordering. One possible solution to mitigate this race\n     * condition is to first reduce the spender's allowance to 0 and set the\n     * desired value afterwards:\n     * https://github.com/ethereum/EIPs/issues/20#issuecomment-263524729\n     *\n     * Emits an {Approval} event.\n     */\n    function approve(address spender, uint256 amount) external returns (bool);\n}\n\ncontract NeoToken is IERC20 {\n    string public constant name = \"NEOTOKEN\";\n    string public constant symbol = \"NEO\";\n    uint8 public constant decimals = 18;\n    uint256 _totalSupply = 100000 * 10**18;\n    // minimum required NEO tokens to creating proposal\n    uint256 minReqToken = 1000;\n    address public admin;\n    uint256 public proposalCount;\n\n    mapping(address => uint256) balances;\n    mapping(address => mapping(address => uint256)) allowed;\n\n    using SafeMath for uint256;\n\n    constructor() {\n        balances[msg.sender] = _totalSupply;\n        admin = msg.sender;\n    }\n\n    modifier onlyAdmin() {\n        require(msg.sender == admin, \"Only admin can do this\");\n        _;\n    }\n\n    function totalSupply() public view override returns (uint256) {\n        return _totalSupply;\n    }\n\n    function balanceOf(address account)public view override returns (uint256) {\n        return balances[account];\n    }\n\n    function transfer(address to, uint256 amount) public override returns (bool) {\n        require(amount <= balances[msg.sender],\"transfer: Insufficient tokens to transfer\");\n        balances[msg.sender] = balances[msg.sender].sub(amount);\n        balances[to] = balances[to].add(amount);\n        emit Transfer(msg.sender, to, amount);\n        return true;\n    }\n\n    function approve(address spender, uint256 amount) public override returns (bool) {\n        allowed[msg.sender][spender] = amount;\n        emit Approval(msg.sender, spender, amount);\n        return true;\n    }\n\n    function allowance(address owner, address spender) public view override returns (uint256) {\n        return allowed[owner][spender];\n    }\n\n    function transferFrom(address from, address to, uint256 amount) public override returns (bool) {\n        require(amount <= allowed[from][msg.sender],\"transferFrom:Not Allowed to transfer\");\n        require(amount <= balances[from],\"transferFrom:Insufficient tokens\");\n\n        balances[from] = balances[from].sub(amount);\n        allowed[from][msg.sender] = allowed[from][msg.sender].sub(amount);\n        balances[to] = balances[to].add(amount);\n        emit Transfer(from, to, amount);\n        return true;\n    }\n    /// @notice Detailed feilds of proposal\n    struct Proposal {\n        //  proposal Id\n        uint256 id;\n        //  owner of the proposal\n        address proposer;\n        //  favor votes of the proposal\n        uint256 favorVotes;\n        //  against votes of the proposal\n        uint256 againstVotes;\n        //  canceled = true if the proposal if cancelled\n        bool canceled;\n        //  announced = true if the proposal if announced\n        bool announced;\n        // total No.of voters\n        uint256 voterCount;\n        // description  of the proposal\n        string description;\n        // title  of the proposal\n        string title;\n        // proposal created Date\n        uint256 dateOfCreation;\n        // deadLine of the proposal for vote\n        uint256 deadLine;\n        // set the proposal is passed or rejected status by Enum\n        ProposalState res;\n    }\n    /// @notice receipt record for a voters\n    struct VoteReceipt {\n        //  Whether Voted or Not\n        bool isVoted;\n        //  whether vote for favor or against\n        bool isSupport;\n        //  Vote Count\n        uint256 votes;\n    }\n\n     struct Vote {\n        address voterAddress;\n        bool support;\n        uint256 votes;\n    }\n\n    // The official record of all proposals ever proposed\n    mapping(uint256 => Proposal) public proposals;\n\n    // To store receipts of all voters on all proposals\n    // proposalId => (voterAddress => VoteReceipt)\n    mapping(uint256 => mapping(address => VoteReceipt)) receipts;\n\n    // To store all voters on all proposals\n    // proposalId => (voterIndex => voterAddress)\n    mapping(uint256 => mapping(uint256 => address)) voters;\n\n    /// @notice Possible states that a proposal may be in\n    enum ProposalState {ACTIVE, CANCELED, ACCEPTED, REJECTED}\n\n    /// @notice An event emitted when a new proposal is created\n    event ProposalCreated( uint256 id, address proposer, string description, string title, uint256 dateOfCreation);\n\n    /// @notice An event emitted when a vote has been cast on a proposal\n    event VoteCast(address voter, uint256 proposalId, bool support);\n\n    function createProposal(string memory proposalTitle, string memory proposalDescription) external {\n        require(\n            balances[msg.sender] >= minReqToken,\n            \"createProposal: Must have more than 1000 NEO Token to create proposals\"\n        );\n        proposalCount++;\n        Proposal memory newProposal = Proposal({\n            id: proposalCount,\n            proposer: msg.sender,\n            favorVotes: 0,\n            againstVotes: 0,\n            canceled: false,\n            announced: false,\n            voterCount: 0,\n            description: proposalDescription,\n            title: proposalTitle,\n            dateOfCreation: block.timestamp,\n            deadLine: block.timestamp + 2 minutes,\n            res: ProposalState.ACTIVE\n        });\n\n        proposals[newProposal.id] = newProposal;\n        emit ProposalCreated(\n            newProposal.id,\n            msg.sender,\n            proposalDescription,\n            proposalTitle,\n            newProposal.dateOfCreation\n        );\n    }\n\n    function getReceipt(uint256 proposalId, address voter) external view returns (VoteReceipt memory) {\n        return receipts[proposalId][voter];\n    }\n\n    function stateOfTheProposal(uint256 proposalId) public returns (ProposalState) {\n        uint256 totalAmountOfPassVoters;\n        uint256 totalAmountOfRejectVoters;\n        require(\n            proposalCount >= proposalId && proposalId > 0,\n            \"state: invalid proposal id\"\n        );\n        Proposal storage proposal = proposals[proposalId];\n        if (proposal.canceled) {\n            return ProposalState.CANCELED;\n        } else if (proposal.announced) {\n            for (uint256 i = 0; i < proposal.voterCount; i++) {\n                VoteReceipt storage receipt = receipts[proposalId][\n                    voters[proposalId][i]\n                ];\n                if (receipt.isSupport == true) {\n                    totalAmountOfPassVoters += balanceOf(voters[proposalId][i]);\n                } else if (receipt.isSupport == false) {\n                    totalAmountOfRejectVoters += balanceOf(voters[proposalId][i]);\n                }\n            }\n            if (totalAmountOfPassVoters > totalAmountOfRejectVoters) {\n                proposal.res = ProposalState.ACCEPTED;\n                return ProposalState.ACCEPTED;\n            } else {\n                proposal.res = ProposalState.REJECTED;\n                return ProposalState.REJECTED;\n            }\n        } else {\n            return ProposalState.ACTIVE;\n        }\n    }\n\n    function voteToProposal(uint256 proposalId, bool vote) external {\n        require(\n            proposalCount >= proposalId && proposalId > 0,\n            \"voteToProposal: invalid proposal id\"\n        );\n        Proposal storage proposal = proposals[proposalId];\n        require(\n            block.timestamp <= proposal.deadLine,\n            \"voteToProposal: Voting period has ended\"\n        );\n        require(\n            balances[msg.sender] >= 0,\n            \"voteToProposal: User doesn't have sufficient token to vote\"\n        );\n        VoteReceipt storage receipt = receipts[proposalId][msg.sender];\n        require((receipt.isVoted == false), \"voteToProposal: You can't vote again\");\n\n        receipt.isVoted = true;\n        receipt.isSupport = vote;\n        receipt.votes = 1;\n        voters[proposalId][proposal.voterCount] = msg.sender;\n        proposal.voterCount++;\n        if (vote) {\n            proposal.favorVotes = proposal.favorVotes.add(1);\n        } else {\n            proposal.againstVotes = proposal.againstVotes.add(1);\n        }\n        receipts[proposalId][msg.sender] = receipt;\n        emit VoteCast(msg.sender, proposalId, vote);\n    }\n\n    function proposalResult(uint256 proposalId) external {\n        require(proposalCount >= proposalId && proposalId > 0,\"declareResult: invalid proposal id\");\n\n        Proposal storage proposal = proposals[proposalId];\n        require(block.timestamp > proposal.deadLine,\"declareResult: DeadLine has not yet passed\");\n\n        ProposalState _ProposalState = stateOfTheProposal(proposalId);\n        require(_ProposalState != ProposalState.CANCELED, \"declareResult: Prososal is canceled\");\n        require(\n            _ProposalState != ProposalState.ACCEPTED &&_ProposalState != ProposalState.REJECTED,\n            \"declareResult: Result already announced\"\n        );\n        proposal.announced = true;\n    }\n\n    function cancelProposal(uint256 proposalId) external {\n        require(proposalCount >= proposalId && proposalId > 0, \"cancelProposal: proposal id is invalid\");\n\n        Proposal storage proposal = proposals[proposalId];\n        require(msg.sender == proposal.proposer,\"cancelProposal: only admin can cancel the proposal\");\n        require(block.timestamp < proposal.deadLine,\n            \"cancelProposal: not able to cancel, DeadLine crossed\"\n        );\n        ProposalState _ProposalState = stateOfTheProposal(proposalId);\n        require(\n            _ProposalState != ProposalState.CANCELED,\n            \"declareResult: Already in cancel state\"\n        );\n        proposal.canceled = true;\n    }\n\n    function getVotes(uint256 proposalId) public view returns (Vote[] memory) {\n        uint256 voterCount = proposals[proposalId].voterCount;\n        Vote[] memory votes = new Vote[](voterCount);\n        for (uint256 i = 0; i < voterCount; i++) {\n            votes[i] = Vote(\n                voters[proposalId][i],\n                receipts[proposalId][voters[proposalId][i]].isSupport,\n                receipts[proposalId][voters[proposalId][i]].votes\n            );\n        }\n        return votes;\n    }\n}\n\nlibrary SafeMath {\n    function sub(uint256 a, uint256 b) internal pure returns (uint256) {\n        assert(b <= a);\n        return a - b;\n    }\n\n    function add(uint256 a, uint256 b) internal pure returns (uint256) {\n        uint256 c = a + b;\n        assert(c >= a);\n        return c;\n    }\n}",
  "sourcePath": "/home/neosoft/projects/solidity/votingContract/contracts/NeoToken.sol",
  "compiler": {
    "name": "solc",
    "version": "0.8.17+commit.8df45f5f.Emscripten.clang"
  },
  "schemaVersion": "3.4.10",
  "updatedAt": "2022-11-22T19:23:17.136Z",
  "networkType": "ethereum",
  "devdoc": {
    "kind": "dev",
    "methods": {
      "allowance(address,address)": {
        "details": "Returns the remaining number of tokens that `spender` will be allowed to spend on behalf of `owner` through {transferFrom}. This is zero by default. This value changes when {approve} or {transferFrom} are called."
      },
      "approve(address,uint256)": {
        "details": "Sets `amount` as the allowance of `spender` over the caller's tokens. Returns a boolean value indicating whether the operation succeeded. IMPORTANT: Beware that changing an allowance with this method brings the risk that someone may use both the old and the new allowance by unfortunate transaction ordering. One possible solution to mitigate this race condition is to first reduce the spender's allowance to 0 and set the desired value afterwards: https://github.com/ethereum/EIPs/issues/20#issuecomment-263524729 Emits an {Approval} event."
      },
      "balanceOf(address)": {
        "details": "Returns the amount of tokens owned by `account`."
      },
      "totalSupply()": {
        "details": "Returns the amount of tokens in existence."
      },
      "transfer(address,uint256)": {
        "details": "Moves `amount` tokens from the caller's account to `to`. Returns a boolean value indicating whether the operation succeeded. Emits a {Transfer} event."
      },
      "transferFrom(address,address,uint256)": {
        "details": "Moves `amount` tokens from `from` to `to` using the allowance mechanism. `amount` is then deducted from the caller's allowance. Returns a boolean value indicating whether the operation succeeded. Emits a {Transfer} event."
      }
    },
    "version": 1
  },
  "userdoc": {
    "events": {
      "ProposalCreated(uint256,address,string,string,uint256)": {
        "notice": "An event emitted when a new proposal is created"
      },
      "VoteCast(address,uint256,bool)": {
        "notice": "An event emitted when a vote has been cast on a proposal"
      }
    },
    "kind": "user",
    "methods": {},
    "version": 1
  }
}