{
  "contractName": "NeoToken",
  "abi": [
    {
      "inputs": [],
      "stateMutability": "nonpayable",
      "type": "constructor"
    },
    {
      "anonymous": false,
      "inputs": [
        {
          "indexed": true,
          "internalType": "address",
          "name": "owner",
          "type": "address"
        },
        {
          "indexed": true,
          "internalType": "address",
          "name": "spender",
          "type": "address"
        },
        {
          "indexed": false,
          "internalType": "uint256",
          "name": "value",
          "type": "uint256"
        }
      ],
      "name": "Approval",
      "type": "event"
    },
    {
      "anonymous": false,
      "inputs": [
        {
          "indexed": false,
          "internalType": "uint256",
          "name": "id",
          "type": "uint256"
        },
        {
          "indexed": false,
          "internalType": "address",
          "name": "proposer",
          "type": "address"
        },
        {
          "indexed": false,
          "internalType": "string",
          "name": "description",
          "type": "string"
        },
        {
          "indexed": false,
          "internalType": "string",
          "name": "title",
          "type": "string"
        },
        {
          "indexed": false,
          "internalType": "uint256",
          "name": "dateOfCreation",
          "type": "uint256"
        }
      ],
      "name": "ProposalCreated",
      "type": "event"
    },
    {
      "anonymous": false,
      "inputs": [
        {
          "indexed": true,
          "internalType": "address",
          "name": "from",
          "type": "address"
        },
        {
          "indexed": true,
          "internalType": "address",
          "name": "to",
          "type": "address"
        },
        {
          "indexed": false,
          "internalType": "uint256",
          "name": "value",
          "type": "uint256"
        }
      ],
      "name": "Transfer",
      "type": "event"
    },
    {
      "anonymous": false,
      "inputs": [
        {
          "indexed": false,
          "internalType": "address",
          "name": "voter",
          "type": "address"
        },
        {
          "indexed": false,
          "internalType": "uint256",
          "name": "proposalId",
          "type": "uint256"
        },
        {
          "indexed": false,
          "internalType": "bool",
          "name": "support",
          "type": "bool"
        }
      ],
      "name": "VoteCast",
      "type": "event"
    },
    {
      "inputs": [],
      "name": "admin",
      "outputs": [
        {
          "internalType": "address",
          "name": "",
          "type": "address"
        }
      ],
      "stateMutability": "view",
      "type": "function",
      "constant": true
    },
    {
      "inputs": [
        {
          "internalType": "address",
          "name": "owner",
          "type": "address"
        },
        {
          "internalType": "address",
          "name": "spender",
          "type": "address"
        }
      ],
      "name": "allowance",
      "outputs": [
        {
          "internalType": "uint256",
          "name": "",
          "type": "uint256"
        }
      ],
      "stateMutability": "view",
      "type": "function",
      "constant": true
    },
    {
      "inputs": [
        {
          "internalType": "address",
          "name": "spender",
          "type": "address"
        },
        {
          "internalType": "uint256",
          "name": "amount",
          "type": "uint256"
        }
      ],
      "name": "approve",
      "outputs": [
        {
          "internalType": "bool",
          "name": "",
          "type": "bool"
        }
      ],
      "stateMutability": "nonpayable",
      "type": "function"
    },
    {
      "inputs": [
        {
          "internalType": "address",
          "name": "account",
          "type": "address"
        }
      ],
      "name": "balanceOf",
      "outputs": [
        {
          "internalType": "uint256",
          "name": "",
          "type": "uint256"
        }
      ],
      "stateMutability": "view",
      "type": "function",
      "constant": true
    },
    {
      "inputs": [],
      "name": "decimals",
      "outputs": [
        {
          "internalType": "uint8",
          "name": "",
          "type": "uint8"
        }
      ],
      "stateMutability": "view",
      "type": "function",
      "constant": true
    },
    {
      "inputs": [],
      "name": "name",
      "outputs": [
        {
          "internalType": "string",
          "name": "",
          "type": "string"
        }
      ],
      "stateMutability": "view",
      "type": "function",
      "constant": true
    },
    {
      "inputs": [],
      "name": "proposalCount",
      "outputs": [
        {
          "internalType": "uint256",
          "name": "",
          "type": "uint256"
        }
      ],
      "stateMutability": "view",
      "type": "function",
      "constant": true
    },
    {
      "inputs": [
        {
          "internalType": "uint256",
          "name": "",
          "type": "uint256"
        }
      ],
      "name": "proposals",
      "outputs": [
        {
          "internalType": "uint256",
          "name": "id",
          "type": "uint256"
        },
        {
          "internalType": "address",
          "name": "proposer",
          "type": "address"
        },
        {
          "internalType": "uint256",
          "name": "favorVotes",
          "type": "uint256"
        },
        {
          "internalType": "uint256",
          "name": "againstVotes",
          "type": "uint256"
        },
        {
          "internalType": "bool",
          "name": "canceled",
          "type": "bool"
        },
        {
          "internalType": "bool",
          "name": "announced",
          "type": "bool"
        },
        {
          "internalType": "uint256",
          "name": "voterCount",
          "type": "uint256"
        },
        {
          "internalType": "string",
          "name": "description",
          "type": "string"
        },
        {
          "internalType": "string",
          "name": "title",
          "type": "string"
        },
        {
          "internalType": "uint256",
          "name": "dateOfCreation",
          "type": "uint256"
        },
        {
          "internalType": "uint256",
          "name": "deadLine",
          "type": "uint256"
        },
        {
          "internalType": "enum NeoToken.ProposalState",
          "name": "res",
          "type": "uint8"
        }
      ],
      "stateMutability": "view",
      "type": "function",
      "constant": true
    },
    {
      "inputs": [],
      "name": "symbol",
      "outputs": [
        {
          "internalType": "string",
          "name": "",
          "type": "string"
        }
      ],
      "stateMutability": "view",
      "type": "function",
      "constant": true
    },
    {
      "inputs": [],
      "name": "totalSupply",
      "outputs": [
        {
          "internalType": "uint256",
          "name": "",
          "type": "uint256"
        }
      ],
      "stateMutability": "view",
      "type": "function",
      "constant": true
    },
    {
      "inputs": [
        {
          "internalType": "address",
          "name": "to",
          "type": "address"
        },
        {
          "internalType": "uint256",
          "name": "amount",
          "type": "uint256"
        }
      ],
      "name": "transfer",
      "outputs": [
        {
          "internalType": "bool",
          "name": "",
          "type": "bool"
        }
      ],
      "stateMutability": "nonpayable",
      "type": "function"
    },
    {
      "inputs": [
        {
          "internalType": "address",
          "name": "from",
          "type": "address"
        },
        {
          "internalType": "address",
          "name": "to",
          "type": "address"
        },
        {
          "internalType": "uint256",
          "name": "amount",
          "type": "uint256"
        }
      ],
      "name": "transferFrom",
      "outputs": [
        {
          "internalType": "bool",
          "name": "",
          "type": "bool"
        }
      ],
      "stateMutability": "nonpayable",
      "type": "function"
    },
    {
      "inputs": [
        {
          "internalType": "string",
          "name": "proposalTitle",
          "type": "string"
        },
        {
          "internalType": "string",
          "name": "proposalDescription",
          "type": "string"
        }
      ],
      "name": "createProposal",
      "outputs": [],
      "stateMutability": "nonpayable",
      "type": "function"
    },
    {
      "inputs": [
        {
          "internalType": "uint256",
          "name": "proposalId",
          "type": "uint256"
        },
        {
          "internalType": "address",
          "name": "voter",
          "type": "address"
        }
      ],
      "name": "getReceipt",
      "outputs": [
        {
          "components": [
            {
              "internalType": "bool",
              "name": "isVoted",
              "type": "bool"
            },
            {
              "internalType": "bool",
              "name": "isSupport",
              "type": "bool"
            },
            {
              "internalType": "uint256",
              "name": "votes",
              "type": "uint256"
            }
          ],
          "internalType": "struct NeoToken.VoteReceipt",
          "name": "",
          "type": "tuple"
        }
      ],
      "stateMutability": "view",
      "type": "function",
      "constant": true
    },
    {
      "inputs": [
        {
          "internalType": "uint256",
          "name": "proposalId",
          "type": "uint256"
        }
      ],
      "name": "stateOfTheProposal",
      "outputs": [
        {
          "internalType": "enum NeoToken.ProposalState",
          "name": "",
          "type": "uint8"
        }
      ],
      "stateMutability": "nonpayable",
      "type": "function"
    },
    {
      "inputs": [
        {
          "internalType": "uint256",
          "name": "proposalId",
          "type": "uint256"
        },
        {
          "internalType": "bool",
          "name": "vote",
          "type": "bool"
        }
      ],
      "name": "voteToProposal",
      "outputs": [],
      "stateMutability": "nonpayable",
      "type": "function"
    },
    {
      "inputs": [
        {
          "internalType": "uint256",
          "name": "proposalId",
          "type": "uint256"
        }
      ],
      "name": "proposalResult",
      "outputs": [],
      "stateMutability": "nonpayable",
      "type": "function"
    },
    {
      "inputs": [
        {
          "internalType": "uint256",
          "name": "proposalId",
          "type": "uint256"
        }
      ],
      "name": "cancelProposal",
      "outputs": [],
      "stateMutability": "nonpayable",
      "type": "function"
    },
    {
      "inputs": [
        {
          "internalType": "uint256",
          "name": "proposalId",
          "type": "uint256"
        }
      ],
      "name": "markProposalEnded",
      "outputs": [],
      "stateMutability": "nonpayable",
      "type": "function"
    },
    {
      "inputs": [
        {
          "internalType": "uint256",
          "name": "proposalId",
          "type": "uint256"
        }
      ],
      "name": "getVotes",
      "outputs": [
        {
          "components": [
            {
              "internalType": "address",
              "name": "voterAddress",
              "type": "address"
            },
            {
              "internalType": "bool",
              "name": "support",
              "type": "bool"
            },
            {
              "internalType": "uint256",
              "name": "votes",
              "type": "uint256"
            }
          ],
          "internalType": "struct NeoToken.Vote[]",
          "name": "",
          "type": "tuple[]"
        }
      ],
      "stateMutability": "view",
      "type": "function",
      "constant": true
    }
  ],
  "bytecode": "0x60806040526012600a6200001491906200047c565b612710620000239190620004cd565b6000556012600a6200003691906200047c565b6103e8620000459190620004cd565b6003556012600a6200005891906200047c565b600a620000669190620004cd565b6004553480156200007657600080fd5b5033600560006101000a81548173ffffffffffffffffffffffffffffffffffffffff021916908373ffffffffffffffffffffffffffffffffffffffff160217905550600354600160003373ffffffffffffffffffffffffffffffffffffffff1673ffffffffffffffffffffffffffffffffffffffff168152602001908152602001600020819055506004546001600073152246aefccdbac806b40af545a02818b8c5b48b73ffffffffffffffffffffffffffffffffffffffff1673ffffffffffffffffffffffffffffffffffffffff168152602001908152602001600020819055506004546001600073f3d68b7e53ef28763066c50b57efc200c99efb7473ffffffffffffffffffffffffffffffffffffffff1673ffffffffffffffffffffffffffffffffffffffff1681526020019081526020016000208190555060045460016000731176445983154b5863245916a4245fd84b720a9673ffffffffffffffffffffffffffffffffffffffff1673ffffffffffffffffffffffffffffffffffffffff16815260200190815260200160002081905550600454600160007364d73b0b84f0fe0a63df9ca4a8bed8906a2ff06c73ffffffffffffffffffffffffffffffffffffffff1673ffffffffffffffffffffffffffffffffffffffff168152602001908152602001600020819055506012600a6200027691906200047c565b612710620002859190620004cd565b6001600073bb753437ffd3c10e9c83ac98e185c7156481b4c573ffffffffffffffffffffffffffffffffffffffff1673ffffffffffffffffffffffffffffffffffffffff1681526020019081526020016000208190555062000518565b7f4e487b7100000000000000000000000000000000000000000000000000000000600052601160045260246000fd5b60008160011c9050919050565b6000808291508390505b60018511156200037057808604811115620003485762000347620002e2565b5b6001851615620003585780820291505b8081029050620003688562000311565b945062000328565b94509492505050565b6000826200038b57600190506200045e565b816200039b57600090506200045e565b8160018114620003b45760028114620003bf57620003f5565b60019150506200045e565b60ff841115620003d457620003d3620002e2565b5b8360020a915084821115620003ee57620003ed620002e2565b5b506200045e565b5060208310610133831016604e8410600b84101617156200042f5782820a905083811115620004295762000428620002e2565b5b6200045e565b6200043e84848460016200031e565b92509050818404811115620004585762000457620002e2565b5b81810290505b9392505050565b6000819050919050565b600060ff82169050919050565b6000620004898262000465565b915062000496836200046f565b9250620004c57fffffffffffffffffffffffffffffffffffffffffffffffffffffffffffffffff848462000379565b905092915050565b6000620004da8262000465565b9150620004e78362000465565b9250828202620004f78162000465565b91508282048414831517620005115762000510620002e2565b5b5092915050565b61376780620005286000396000f3fe608060405234801561001057600080fd5b506004361061012c5760003560e01c80638d077768116100ad578063dd62ed3e11610071578063dd62ed3e14610362578063e0a8f6f514610392578063e23a9a52146103ae578063f851a440146103de578063ff981099146103fc5761012c565b80638d077768146102be57806395d89b41146102da578063a9059cbb146102f8578063d397b4f714610328578063da35c664146103445761012c565b8063223d78dd116100f4578063223d78dd146101f457806323b872dd14610224578063313ce5671461025457806365e481e21461027257806370a082311461028e5761012c565b8063013cf08b1461013157806306fdde031461016c578063095ea7b31461018a5780631022b30b146101ba57806318160ddd146101d6575b600080fd5b61014b6004803603810190610146919061206c565b61042c565b6040516101639c9b9a9998979695949392919061220b565b60405180910390f35b6101746105e3565b60405161018191906122d3565b60405180910390f35b6101a4600480360381019061019f9190612321565b61061c565b6040516101b19190612361565b60405180910390f35b6101d460048036038101906101cf919061206c565b61070e565b005b6101de61097c565b6040516101eb919061237c565b60405180910390f35b61020e6004803603810190610209919061206c565b610985565b60405161021b9190612397565b60405180910390f35b61023e600480360381019061023991906123b2565b610c64565b60405161024b9190612361565b60405180910390f35b61025c61103b565b6040516102699190612421565b60405180910390f35b61028c60048036038101906102879190612571565b611040565b005b6102a860048036038101906102a391906125e9565b611279565b6040516102b5919061237c565b60405180910390f35b6102d860048036038101906102d3919061206c565b6112c2565b005b6102e26113c7565b6040516102ef91906122d3565b60405180910390f35b610312600480360381019061030d9190612321565b611400565b60405161031f9190612361565b60405180910390f35b610342600480360381019061033d9190612642565b61160f565b005b61034c6119f6565b604051610359919061237c565b60405180910390f35b61037c60048036038101906103779190612682565b6119fc565b604051610389919061237c565b60405180910390f35b6103ac60048036038101906103a7919061206c565b611a83565b005b6103c860048036038101906103c391906126c2565b611c59565b6040516103d59190612762565b60405180910390f35b6103e6611d04565b6040516103f3919061277d565b60405180910390f35b6104166004803603810190610411919061206c565b611d2a565b6040516104239190612898565b60405180910390f35b60076020528060005260406000206000915090508060000154908060010160009054906101000a900473ffffffffffffffffffffffffffffffffffffffff16908060020154908060030154908060040160009054906101000a900460ff16908060040160019054906101000a900460ff16908060050154908060060180546104b3906128e9565b80601f01602080910402602001604051908101604052809291908181526020018280546104df906128e9565b801561052c5780601f106105015761010080835404028352916020019161052c565b820191906000526020600020905b81548152906001019060200180831161050f57829003601f168201915b505050505090806007018054610541906128e9565b80601f016020809104026020016040519081016040528092919081815260200182805461056d906128e9565b80156105ba5780601f1061058f576101008083540402835291602001916105ba565b820191906000526020600020905b81548152906001019060200180831161059d57829003601f168201915b50505050509080600801549080600901549080600a0160009054906101000a900460ff1690508c565b6040518060400160405280600881526020017f4e454f544f4b454e00000000000000000000000000000000000000000000000081525081565b600081600260003373ffffffffffffffffffffffffffffffffffffffff1673ffffffffffffffffffffffffffffffffffffffff16815260200190815260200160002060008573ffffffffffffffffffffffffffffffffffffffff1673ffffffffffffffffffffffffffffffffffffffff168152602001908152602001600020819055508273ffffffffffffffffffffffffffffffffffffffff163373ffffffffffffffffffffffffffffffffffffffff167f8c5be1e5ebec7d5bd14f71427d1e84f3dd0314c0f7b2291e5b200ac8c7c3b925846040516106fc919061237c565b60405180910390a36001905092915050565b80600654101580156107205750600081115b61075f576040517f08c379a00000000000000000000000000000000000000000000000000000000081526004016107569061298c565b60405180910390fd5b60006007600083815260200190815260200160002090503373ffffffffffffffffffffffffffffffffffffffff168160010160009054906101000a900473ffffffffffffffffffffffffffffffffffffffff1673ffffffffffffffffffffffffffffffffffffffff1614610808576040517f08c379a00000000000000000000000000000000000000000000000000000000081526004016107ff90612a1e565b60405180910390fd5b8060090154421161084e576040517f08c379a000000000000000000000000000000000000000000000000000000000815260040161084590612ab0565b60405180910390fd5b600061085983610985565b90506001600381111561086f5761086e612194565b5b81600381111561088257610881612194565b5b036108c2576040517f08c379a00000000000000000000000000000000000000000000000000000000081526004016108b990612b42565b60405180910390fd5b600260038111156108d6576108d5612194565b5b8160038111156108e9576108e8612194565b5b1415801561091b575060038081111561090557610904612194565b5b81600381111561091857610917612194565b5b14155b61095a576040517f08c379a000000000000000000000000000000000000000000000000000000000815260040161095190612bd4565b60405180910390fd5b60018260040160016101000a81548160ff021916908315150217905550505050565b60008054905090565b6000806000836006541015801561099c5750600084115b6109db576040517f08c379a00000000000000000000000000000000000000000000000000000000081526004016109d290612c66565b60405180910390fd5b60006007600086815260200190815260200160002090508060040160009054906101000a900460ff1615610a155760019350505050610c5f565b8060040160019054906101000a900460ff1615610c575760005b8160050154811015610bdc576000600860008881526020019081526020016000206000600960008a8152602001908152602001600020600085815260200190815260200160002060009054906101000a900473ffffffffffffffffffffffffffffffffffffffff1673ffffffffffffffffffffffffffffffffffffffff1673ffffffffffffffffffffffffffffffffffffffff1681526020019081526020016000209050600115158160000160019054906101000a900460ff16151503610b4f57610b3d60096000898152602001908152602001600020600084815260200190815260200160002060009054906101000a900473ffffffffffffffffffffffffffffffffffffffff16611279565b85610b489190612cb5565b9450610bc8565b600015158160000160019054906101000a900460ff16151503610bc757610bb960096000898152602001908152602001600020600084815260200190815260200160002060009054906101000a900473ffffffffffffffffffffffffffffffffffffffff16611279565b84610bc49190612cb5565b93505b5b508080610bd490612ce9565b915050610a2f565b5081831115610c1e57600281600a0160006101000a81548160ff02191690836003811115610c0d57610c0c612194565b5b021790555060029350505050610c5f565b600381600a0160006101000a81548160ff02191690836003811115610c4657610c45612194565b5b021790555060039350505050610c5f565b600093505050505b919050565b6000600260008573ffffffffffffffffffffffffffffffffffffffff1673ffffffffffffffffffffffffffffffffffffffff16815260200190815260200160002060003373ffffffffffffffffffffffffffffffffffffffff1673ffffffffffffffffffffffffffffffffffffffff16815260200190815260200160002054821115610d25576040517f08c379a0000000000000000000000000000000000000000000000000000000008152600401610d1c90612da3565b60405180910390fd5b600160008573ffffffffffffffffffffffffffffffffffffffff1673ffffffffffffffffffffffffffffffffffffffff16815260200190815260200160002054821115610da7576040517f08c379a0000000000000000000000000000000000000000000000000000000008152600401610d9e90612e0f565b60405180910390fd5b81600160008673ffffffffffffffffffffffffffffffffffffffff1673ffffffffffffffffffffffffffffffffffffffff16815260200190815260200160002054610df29190612cb5565b600160008673ffffffffffffffffffffffffffffffffffffffff1673ffffffffffffffffffffffffffffffffffffffff1681526020019081526020016000208190555081600260008673ffffffffffffffffffffffffffffffffffffffff1673ffffffffffffffffffffffffffffffffffffffff16815260200190815260200160002060003373ffffffffffffffffffffffffffffffffffffffff1673ffffffffffffffffffffffffffffffffffffffff16815260200190815260200160002054610ebd9190612cb5565b600260008673ffffffffffffffffffffffffffffffffffffffff1673ffffffffffffffffffffffffffffffffffffffff16815260200190815260200160002060003373ffffffffffffffffffffffffffffffffffffffff1673ffffffffffffffffffffffffffffffffffffffff1681526020019081526020016000208190555081600160008573ffffffffffffffffffffffffffffffffffffffff1673ffffffffffffffffffffffffffffffffffffffff16815260200190815260200160002054610f889190612cb5565b600160008573ffffffffffffffffffffffffffffffffffffffff1673ffffffffffffffffffffffffffffffffffffffff168152602001908152602001600020819055508273ffffffffffffffffffffffffffffffffffffffff168473ffffffffffffffffffffffffffffffffffffffff167fddf252ad1be2c89b69c2b068fc378daa952ba7f163c4a11628f55a4df523b3ef84604051611028919061237c565b60405180910390a3600190509392505050565b601281565b6006600081548092919061105390612ce9565b9190505550600060405180610180016040528060065481526020013373ffffffffffffffffffffffffffffffffffffffff16815260200160008152602001600081526020016000151581526020016000151581526020016000815260200183815260200184815260200142815260200160b4426110d09190612cb5565b8152602001600060038111156110e9576110e8612194565b5b81525090508060076000836000015181526020019081526020016000206000820151816000015560208201518160010160006101000a81548173ffffffffffffffffffffffffffffffffffffffff021916908373ffffffffffffffffffffffffffffffffffffffff160217905550604082015181600201556060820151816003015560808201518160040160006101000a81548160ff02191690831515021790555060a08201518160040160016101000a81548160ff02191690831515021790555060c0820151816005015560e08201518160060190816111ca9190612fdb565b506101008201518160070190816111e19190612fdb565b506101208201518160080155610140820151816009015561016082015181600a0160006101000a81548160ff0219169083600381111561122457611223612194565b5b02179055509050507fbd04b5479c6dd97d2cc7727f90a20fe21ccf7121f4f9fdc04a755ee528efeb44816000015133848685610120015160405161126c9594939291906130ad565b60405180910390a1505050565b6000600160008373ffffffffffffffffffffffffffffffffffffffff1673ffffffffffffffffffffffffffffffffffffffff168152602001908152602001600020549050919050565b600560009054906101000a900473ffffffffffffffffffffffffffffffffffffffff1673ffffffffffffffffffffffffffffffffffffffff163373ffffffffffffffffffffffffffffffffffffffff1614611352576040517f08c379a00000000000000000000000000000000000000000000000000000000081526004016113499061315a565b60405180910390fd5b80600654101580156113645750600081115b6113a3576040517f08c379a000000000000000000000000000000000000000000000000000000000815260040161139a9061298c565b60405180910390fd5b60006007600083815260200190815260200160002090504281600901819055505050565b6040518060400160405280600381526020017f4e454f000000000000000000000000000000000000000000000000000000000081525081565b6000600160003373ffffffffffffffffffffffffffffffffffffffff1673ffffffffffffffffffffffffffffffffffffffff16815260200190815260200160002054821115611484576040517f08c379a000000000000000000000000000000000000000000000000000000000815260040161147b906131ec565b60405180910390fd5b81600160003373ffffffffffffffffffffffffffffffffffffffff1673ffffffffffffffffffffffffffffffffffffffff168152602001908152602001600020546114cf9190612cb5565b600160003373ffffffffffffffffffffffffffffffffffffffff1673ffffffffffffffffffffffffffffffffffffffff1681526020019081526020016000208190555081600160008573ffffffffffffffffffffffffffffffffffffffff1673ffffffffffffffffffffffffffffffffffffffff1681526020019081526020016000205461155d9190612cb5565b600160008573ffffffffffffffffffffffffffffffffffffffff1673ffffffffffffffffffffffffffffffffffffffff168152602001908152602001600020819055508273ffffffffffffffffffffffffffffffffffffffff163373ffffffffffffffffffffffffffffffffffffffff167fddf252ad1be2c89b69c2b068fc378daa952ba7f163c4a11628f55a4df523b3ef846040516115fd919061237c565b60405180910390a36001905092915050565b81600654101580156116215750600082115b611660576040517f08c379a00000000000000000000000000000000000000000000000000000000081526004016116579061327e565b60405180910390fd5b600060076000848152602001908152602001600020905080600901544211156116be576040517f08c379a00000000000000000000000000000000000000000000000000000000081526004016116b590613310565b60405180910390fd5b6000600160003373ffffffffffffffffffffffffffffffffffffffff1673ffffffffffffffffffffffffffffffffffffffff168152602001908152602001600020541015611741576040517f08c379a0000000000000000000000000000000000000000000000000000000008152600401611738906133a2565b60405180910390fd5b60006008600085815260200190815260200160002060003373ffffffffffffffffffffffffffffffffffffffff1673ffffffffffffffffffffffffffffffffffffffff1681526020019081526020016000209050600015158160000160009054906101000a900460ff161515146117ed576040517f08c379a00000000000000000000000000000000000000000000000000000000081526004016117e490613434565b60405180910390fd5b60018160000160006101000a81548160ff021916908315150217905550828160000160016101000a81548160ff02191690831515021790555060018160010181905550336009600086815260200190815260200160002060008460050154815260200190815260200160002060006101000a81548173ffffffffffffffffffffffffffffffffffffffff021916908373ffffffffffffffffffffffffffffffffffffffff1602179055508160050160008154809291906118ac90612ce9565b919050555082156118dc576118cf60018360020154611f9890919063ffffffff16565b82600201819055506118fd565b6118f460018360030154611f9890919063ffffffff16565b82600301819055505b806008600086815260200190815260200160002060003373ffffffffffffffffffffffffffffffffffffffff1673ffffffffffffffffffffffffffffffffffffffff1681526020019081526020016000206000820160009054906101000a900460ff168160000160006101000a81548160ff0219169083151502179055506000820160019054906101000a900460ff168160000160016101000a81548160ff021916908315150217905550600182015481600101559050507fd356173ae8eeea8691aee4c1be712c314a975a3d43ebc48b08ca54d0dac912283385856040516119e893929190613454565b60405180910390a150505050565b60065481565b6000600260008473ffffffffffffffffffffffffffffffffffffffff1673ffffffffffffffffffffffffffffffffffffffff16815260200190815260200160002060008373ffffffffffffffffffffffffffffffffffffffff1673ffffffffffffffffffffffffffffffffffffffff16815260200190815260200160002054905092915050565b8060065410158015611a955750600081115b611ad4576040517f08c379a0000000000000000000000000000000000000000000000000000000008152600401611acb906134fd565b60405180910390fd5b60006007600083815260200190815260200160002090508060010160009054906101000a900473ffffffffffffffffffffffffffffffffffffffff1673ffffffffffffffffffffffffffffffffffffffff163373ffffffffffffffffffffffffffffffffffffffff1614611b7d576040517f08c379a0000000000000000000000000000000000000000000000000000000008152600401611b749061358f565b60405180910390fd5b80600901544210611bc3576040517f08c379a0000000000000000000000000000000000000000000000000000000008152600401611bba90613621565b60405180910390fd5b6000611bce83610985565b905060016003811115611be457611be3612194565b5b816003811115611bf757611bf6612194565b5b03611c37576040517f08c379a0000000000000000000000000000000000000000000000000000000008152600401611c2e906136b3565b60405180910390fd5b60018260040160006101000a81548160ff021916908315150217905550505050565b611c61611fc4565b6008600084815260200190815260200160002060008373ffffffffffffffffffffffffffffffffffffffff1673ffffffffffffffffffffffffffffffffffffffff1681526020019081526020016000206040518060600160405290816000820160009054906101000a900460ff161515151581526020016000820160019054906101000a900460ff16151515158152602001600182015481525050905092915050565b600560009054906101000a900473ffffffffffffffffffffffffffffffffffffffff1681565b606060006007600084815260200190815260200160002060050154905060008167ffffffffffffffff811115611d6357611d62612446565b5b604051908082528060200260200182016040528015611d9c57816020015b611d89611fe9565b815260200190600190039081611d815790505b50905060005b82811015611f8d57604051806060016040528060096000888152602001908152602001600020600084815260200190815260200160002060009054906101000a900473ffffffffffffffffffffffffffffffffffffffff1673ffffffffffffffffffffffffffffffffffffffff168152602001600860008881526020019081526020016000206000600960008a8152602001908152602001600020600086815260200190815260200160002060009054906101000a900473ffffffffffffffffffffffffffffffffffffffff1673ffffffffffffffffffffffffffffffffffffffff1673ffffffffffffffffffffffffffffffffffffffff16815260200190815260200160002060000160019054906101000a900460ff1615158152602001600860008881526020019081526020016000206000600960008a8152602001908152602001600020600086815260200190815260200160002060009054906101000a900473ffffffffffffffffffffffffffffffffffffffff1673ffffffffffffffffffffffffffffffffffffffff1673ffffffffffffffffffffffffffffffffffffffff16815260200190815260200160002060010154815250828281518110611f6f57611f6e6136d3565b5b60200260200101819052508080611f8590612ce9565b915050611da2565b508092505050919050565b6000808284611fa79190612cb5565b905083811015611fba57611fb9613702565b5b8091505092915050565b6040518060600160405280600015158152602001600015158152602001600081525090565b6040518060600160405280600073ffffffffffffffffffffffffffffffffffffffff168152602001600015158152602001600081525090565b6000604051905090565b600080fd5b600080fd5b6000819050919050565b61204981612036565b811461205457600080fd5b50565b60008135905061206681612040565b92915050565b6000602082840312156120825761208161202c565b5b600061209084828501612057565b91505092915050565b6120a281612036565b82525050565b600073ffffffffffffffffffffffffffffffffffffffff82169050919050565b60006120d3826120a8565b9050919050565b6120e3816120c8565b82525050565b60008115159050919050565b6120fe816120e9565b82525050565b600081519050919050565b600082825260208201905092915050565b60005b8381101561213e578082015181840152602081019050612123565b60008484015250505050565b6000601f19601f8301169050919050565b600061216682612104565b612170818561210f565b9350612180818560208601612120565b6121898161214a565b840191505092915050565b7f4e487b7100000000000000000000000000000000000000000000000000000000600052602160045260246000fd5b600481106121d4576121d3612194565b5b50565b60008190506121e5826121c3565b919050565b60006121f5826121d7565b9050919050565b612205816121ea565b82525050565b600061018082019050612221600083018f612099565b61222e602083018e6120da565b61223b604083018d612099565b612248606083018c612099565b612255608083018b6120f5565b61226260a083018a6120f5565b61226f60c0830189612099565b81810360e0830152612281818861215b565b9050818103610100830152612296818761215b565b90506122a6610120830186612099565b6122b4610140830185612099565b6122c26101608301846121fc565b9d9c50505050505050505050505050565b600060208201905081810360008301526122ed818461215b565b905092915050565b6122fe816120c8565b811461230957600080fd5b50565b60008135905061231b816122f5565b92915050565b600080604083850312156123385761233761202c565b5b60006123468582860161230c565b925050602061235785828601612057565b9150509250929050565b600060208201905061237660008301846120f5565b92915050565b60006020820190506123916000830184612099565b92915050565b60006020820190506123ac60008301846121fc565b92915050565b6000806000606084860312156123cb576123ca61202c565b5b60006123d98682870161230c565b93505060206123ea8682870161230c565b92505060406123fb86828701612057565b9150509250925092565b600060ff82169050919050565b61241b81612405565b82525050565b60006020820190506124366000830184612412565b92915050565b600080fd5b600080fd5b7f4e487b7100000000000000000000000000000000000000000000000000000000600052604160045260246000fd5b61247e8261214a565b810181811067ffffffffffffffff8211171561249d5761249c612446565b5b80604052505050565b60006124b0612022565b90506124bc8282612475565b919050565b600067ffffffffffffffff8211156124dc576124db612446565b5b6124e58261214a565b9050602081019050919050565b82818337600083830152505050565b600061251461250f846124c1565b6124a6565b9050828152602081018484840111156125305761252f612441565b5b61253b8482856124f2565b509392505050565b600082601f8301126125585761255761243c565b5b8135612568848260208601612501565b91505092915050565b600080604083850312156125885761258761202c565b5b600083013567ffffffffffffffff8111156125a6576125a5612031565b5b6125b285828601612543565b925050602083013567ffffffffffffffff8111156125d3576125d2612031565b5b6125df85828601612543565b9150509250929050565b6000602082840312156125ff576125fe61202c565b5b600061260d8482850161230c565b91505092915050565b61261f816120e9565b811461262a57600080fd5b50565b60008135905061263c81612616565b92915050565b600080604083850312156126595761265861202c565b5b600061266785828601612057565b92505060206126788582860161262d565b9150509250929050565b600080604083850312156126995761269861202c565b5b60006126a78582860161230c565b92505060206126b88582860161230c565b9150509250929050565b600080604083850312156126d9576126d861202c565b5b60006126e785828601612057565b92505060206126f88582860161230c565b9150509250929050565b61270b816120e9565b82525050565b61271a81612036565b82525050565b6060820160008201516127366000850182612702565b5060208201516127496020850182612702565b50604082015161275c6040850182612711565b50505050565b60006060820190506127776000830184612720565b92915050565b600060208201905061279260008301846120da565b92915050565b600081519050919050565b600082825260208201905092915050565b6000819050602082019050919050565b6127cd816120c8565b82525050565b6060820160008201516127e960008501826127c4565b5060208201516127fc6020850182612702565b50604082015161280f6040850182612711565b50505050565b600061282183836127d3565b60608301905092915050565b6000602082019050919050565b600061284582612798565b61284f81856127a3565b935061285a836127b4565b8060005b8381101561288b5781516128728882612815565b975061287d8361282d565b92505060018101905061285e565b5085935050505092915050565b600060208201905081810360008301526128b2818461283a565b905092915050565b7f4e487b7100000000000000000000000000000000000000000000000000000000600052602260045260246000fd5b6000600282049050600182168061290157607f821691505b602082108103612914576129136128ba565b5b50919050565b7f6465636c617265526573756c743a20696e76616c69642070726f706f73616c2060008201527f6964000000000000000000000000000000000000000000000000000000000000602082015250565b600061297660228361210f565b91506129818261291a565b604082019050919050565b600060208201905081810360008301526129a581612969565b9050919050565b7f70726f706f736572206f66207468652070726f706f73616c2077686f2063616e60008201527f206465636c617265207468652070726f706f73616c20726573756c7400000000602082015250565b6000612a08603c8361210f565b9150612a13826129ac565b604082019050919050565b60006020820190508181036000830152612a37816129fb565b9050919050565b7f6465636c617265526573756c743a20446561644c696e6520686173206e6f742060008201527f7965742070617373656400000000000000000000000000000000000000000000602082015250565b6000612a9a602a8361210f565b9150612aa582612a3e565b604082019050919050565b60006020820190508181036000830152612ac981612a8d565b9050919050565b7f6465636c617265526573756c743a2050726f736f73616c2069732063616e636560008201527f6c65640000000000000000000000000000000000000000000000000000000000602082015250565b6000612b2c60238361210f565b9150612b3782612ad0565b604082019050919050565b60006020820190508181036000830152612b5b81612b1f565b9050919050565b7f6465636c617265526573756c743a20526573756c7420616c726561647920616e60008201527f6e6f756e63656400000000000000000000000000000000000000000000000000602082015250565b6000612bbe60278361210f565b9150612bc982612b62565b604082019050919050565b60006020820190508181036000830152612bed81612bb1565b9050919050565b7f73746174654f6654686550726f706f73616c3a20696e76616c69642070726f7060008201527f6f73616c20696400000000000000000000000000000000000000000000000000602082015250565b6000612c5060278361210f565b9150612c5b82612bf4565b604082019050919050565b60006020820190508181036000830152612c7f81612c43565b9050919050565b7f4e487b7100000000000000000000000000000000000000000000000000000000600052601160045260246000fd5b6000612cc082612036565b9150612ccb83612036565b9250828201905080821115612ce357612ce2612c86565b5b92915050565b6000612cf482612036565b91507fffffffffffffffffffffffffffffffffffffffffffffffffffffffffffffffff8203612d2657612d25612c86565b5b600182019050919050565b7f7472616e7366657246726f6d3a4e6f7420416c6c6f77656420746f207472616e60008201527f7366657200000000000000000000000000000000000000000000000000000000602082015250565b6000612d8d60248361210f565b9150612d9882612d31565b604082019050919050565b60006020820190508181036000830152612dbc81612d80565b9050919050565b7f7472616e7366657246726f6d3a496e73756666696369656e7420746f6b656e73600082015250565b6000612df960208361210f565b9150612e0482612dc3565b602082019050919050565b60006020820190508181036000830152612e2881612dec565b9050919050565b60008190508160005260206000209050919050565b60006020601f8301049050919050565b600082821b905092915050565b600060088302612e917fffffffffffffffffffffffffffffffffffffffffffffffffffffffffffffffff82612e54565b612e9b8683612e54565b95508019841693508086168417925050509392505050565b6000819050919050565b6000612ed8612ed3612ece84612036565b612eb3565b612036565b9050919050565b6000819050919050565b612ef283612ebd565b612f06612efe82612edf565b848454612e61565b825550505050565b600090565b612f1b612f0e565b612f26818484612ee9565b505050565b5b81811015612f4a57612f3f600082612f13565b600181019050612f2c565b5050565b601f821115612f8f57612f6081612e2f565b612f6984612e44565b81016020851015612f78578190505b612f8c612f8485612e44565b830182612f2b565b50505b505050565b600082821c905092915050565b6000612fb260001984600802612f94565b1980831691505092915050565b6000612fcb8383612fa1565b9150826002028217905092915050565b612fe482612104565b67ffffffffffffffff811115612ffd57612ffc612446565b5b61300782546128e9565b613012828285612f4e565b600060209050601f8311600181146130455760008415613033578287015190505b61303d8582612fbf565b8655506130a5565b601f19841661305386612e2f565b60005b8281101561307b57848901518255600182019150602085019450602081019050613056565b868310156130985784890151613094601f891682612fa1565b8355505b6001600288020188555050505b505050505050565b600060a0820190506130c26000830188612099565b6130cf60208301876120da565b81810360408301526130e1818661215b565b905081810360608301526130f5818561215b565b90506131046080830184612099565b9695505050505050565b7f4f6e6c792061646d696e2063616e20646f207468697300000000000000000000600082015250565b600061314460168361210f565b915061314f8261310e565b602082019050919050565b6000602082019050818103600083015261317381613137565b9050919050565b7f7472616e736665723a20496e73756666696369656e7420746f6b656e7320746f60008201527f207472616e736665720000000000000000000000000000000000000000000000602082015250565b60006131d660298361210f565b91506131e18261317a565b604082019050919050565b60006020820190508181036000830152613205816131c9565b9050919050565b7f766f7465546f50726f706f73616c3a20696e76616c69642070726f706f73616c60008201527f2069640000000000000000000000000000000000000000000000000000000000602082015250565b600061326860238361210f565b91506132738261320c565b604082019050919050565b600060208201905081810360008301526132978161325b565b9050919050565b7f766f7465546f50726f706f73616c3a20566f74696e6720706572696f6420686160008201527f7320656e64656400000000000000000000000000000000000000000000000000602082015250565b60006132fa60278361210f565b91506133058261329e565b604082019050919050565b60006020820190508181036000830152613329816132ed565b9050919050565b7f766f7465546f50726f706f73616c3a205573657220646f65736e27742068617660008201527f652073756666696369656e7420746f6b656e20746f20766f7465000000000000602082015250565b600061338c603a8361210f565b915061339782613330565b604082019050919050565b600060208201905081810360008301526133bb8161337f565b9050919050565b7f766f7465546f50726f706f73616c3a20596f752063616e277420766f7465206160008201527f6761696e00000000000000000000000000000000000000000000000000000000602082015250565b600061341e60248361210f565b9150613429826133c2565b604082019050919050565b6000602082019050818103600083015261344d81613411565b9050919050565b600060608201905061346960008301866120da565b6134766020830185612099565b61348360408301846120f5565b949350505050565b7f63616e63656c50726f706f73616c3a2070726f706f73616c206964206973206960008201527f6e76616c69640000000000000000000000000000000000000000000000000000602082015250565b60006134e760268361210f565b91506134f28261348b565b604082019050919050565b60006020820190508181036000830152613516816134da565b9050919050565b7f63616e63656c50726f706f73616c3a206f6e6c792061646d696e2063616e206360008201527f616e63656c207468652070726f706f73616c0000000000000000000000000000602082015250565b600061357960328361210f565b91506135848261351d565b604082019050919050565b600060208201905081810360008301526135a88161356c565b9050919050565b7f63616e63656c50726f706f73616c3a206e6f742061626c6520746f2063616e6360008201527f656c2c20446561644c696e652063726f73736564000000000000000000000000602082015250565b600061360b60348361210f565b9150613616826135af565b604082019050919050565b6000602082019050818103600083015261363a816135fe565b9050919050565b7f6465636c617265526573756c743a20416c726561647920696e2063616e63656c60008201527f2073746174650000000000000000000000000000000000000000000000000000602082015250565b600061369d60268361210f565b91506136a882613641565b604082019050919050565b600060208201905081810360008301526136cc81613690565b9050919050565b7f4e487b7100000000000000000000000000000000000000000000000000000000600052603260045260246000fd5b7f4e487b7100000000000000000000000000000000000000000000000000000000600052600160045260246000fdfea2646970667358221220508055909f9ad5cc93b6e7755d7b68e942f2cdc40b16844a3ab9d7ceb186217964736f6c63430008110033",
  "immutableReferences": {},
  "source": "// SPDX-License-Identifier: MIT\npragma solidity ^0.8.6;\n\nimport \"./IERC20.sol\";\n\ncontract NeoToken is ERC20{\n    // minimum required NEO tokens to creating proposal\n    uint256 minReqToken = 1000 * 10 ** decimals;\n    uint256 tokenAssigned = 10 * 10 ** decimals;\n    address public admin;\n    uint256 public proposalCount;\n\n    using SafeMath for uint256;\n\n    constructor() {\n        admin = msg.sender;\n        balances[msg.sender] = minReqToken;\n        balances[0x152246AeFcCDbAC806B40af545A02818b8C5b48b] = tokenAssigned;\n        balances[0xF3D68B7e53EF28763066C50B57eFc200C99EFB74] = tokenAssigned;\n        balances[0x1176445983154b5863245916A4245fd84B720A96] = tokenAssigned;\n        balances[0x64D73B0b84F0fE0a63dF9CA4A8bed8906a2fF06C] = tokenAssigned;\n        // highest stake\n        balances[0xBB753437fFD3C10e9C83ac98E185c7156481b4C5] = 10000 * 10 ** decimals;\n\n    }\n\n    modifier onlyAdmin() {\n        require(msg.sender == admin, \"Only admin can do this\");\n        _;\n    }\n\n    /// @notice Detailed feilds of proposal\n    struct Proposal {\n        //  proposal Id\n        uint256 id;\n        //  owner of the proposal\n        address proposer;\n        //  favor votes of the proposal\n        uint256 favorVotes;\n        //  against votes of the proposal\n        uint256 againstVotes;\n        //  canceled = true if the proposal if cancelled\n        bool canceled;\n        //  announced = true if the proposal if announced\n        bool announced;\n        // total No.of voters\n        uint256 voterCount;\n        // description  of the proposal\n        string description;\n        // title  of the proposal\n        string title;\n        // proposal created Date\n        uint256 dateOfCreation;\n        // deadLine of the proposal for vote\n        uint256 deadLine;\n        // set the proposal is passed or rejected status by Enum\n        ProposalState res;\n    }\n    /// @notice receipt record for a voters\n    struct VoteReceipt {\n        //  Whether Voted or Not\n        bool isVoted;\n        //  whether vote for favor or against\n        bool isSupport;\n        //  Vote Count\n        uint256 votes;\n    }\n\n     struct Vote {\n        address voterAddress;\n        bool support;\n        uint256 votes;\n    }\n\n    // The official record of all proposals ever proposed\n    mapping(uint256 => Proposal) public proposals;\n\n    // To store receipts of all voters on all proposals\n    // proposalId => (voterAddress => VoteReceipt)\n    mapping(uint256 => mapping(address => VoteReceipt)) receipts;\n\n    // To store all voters on all proposals\n    // proposalId => (voterIndex => voterAddress)\n    mapping(uint256 => mapping(uint256 => address)) voters;\n\n    /// @notice Possible states that a proposal may be in\n    enum ProposalState {ACTIVE, CANCELED, ACCEPTED, REJECTED}\n\n    /// @notice An event emitted when a new proposal is created\n    event ProposalCreated( uint256 id, address proposer, string description, string title, uint256 dateOfCreation);\n\n    /// @notice An event emitted when a vote has been cast on a proposal\n    event VoteCast(address voter, uint256 proposalId, bool support);\n\n    function createProposal(string memory proposalTitle, string memory proposalDescription) external {\n        // require(\n        //     balances[msg.sender] >= minReqToken,\n        //     \"createProposal: Must have more than 1000 NEO Token to create proposals\"\n        // );\n        proposalCount++;\n        Proposal memory newProposal = Proposal({\n            id: proposalCount,\n            proposer: msg.sender,\n            favorVotes: 0,\n            againstVotes: 0,\n            canceled: false,\n            announced: false,\n            voterCount: 0,\n            description: proposalDescription,\n            title: proposalTitle,\n            dateOfCreation: block.timestamp,\n            deadLine: block.timestamp + 3 minutes,\n            res: ProposalState.ACTIVE\n        });\n\n        proposals[newProposal.id] = newProposal;\n        emit ProposalCreated(\n            newProposal.id,\n            msg.sender,\n            proposalDescription,\n            proposalTitle,\n            newProposal.dateOfCreation\n        );\n    }\n\n    function getReceipt(uint256 proposalId, address voter) external view returns (VoteReceipt memory) {\n        return receipts[proposalId][voter];\n    }\n\n    function stateOfTheProposal(uint256 proposalId) public returns (ProposalState) {\n        uint256 totalAmountOfPassVoters;\n        uint256 totalAmountOfRejectVoters;\n        require(\n            proposalCount >= proposalId && proposalId > 0,\n            \"stateOfTheProposal: invalid proposal id\"\n        );\n        Proposal storage proposal = proposals[proposalId];\n        if (proposal.canceled) {\n            return ProposalState.CANCELED;\n        } else if (proposal.announced) {\n            for (uint256 i = 0; i < proposal.voterCount; i++) {\n                VoteReceipt storage receipt = receipts[proposalId][\n                    voters[proposalId][i]\n                ];\n                if (receipt.isSupport == true) {\n                    totalAmountOfPassVoters += balanceOf(voters[proposalId][i]);\n                } else if (receipt.isSupport == false) {\n                    totalAmountOfRejectVoters += balanceOf(voters[proposalId][i]);\n                }\n            }\n            if (totalAmountOfPassVoters > totalAmountOfRejectVoters) {\n                proposal.res = ProposalState.ACCEPTED;\n                return ProposalState.ACCEPTED;\n            } else {\n                proposal.res = ProposalState.REJECTED;\n                return ProposalState.REJECTED;\n            }\n        } else {\n            return ProposalState.ACTIVE;\n        }\n    }\n\n    function voteToProposal(uint256 proposalId, bool vote) external {\n        require(\n            proposalCount >= proposalId && proposalId > 0,\n            \"voteToProposal: invalid proposal id\"\n        );\n        Proposal storage proposal = proposals[proposalId];\n        require(\n            block.timestamp <= proposal.deadLine,\n            \"voteToProposal: Voting period has ended\"\n        );\n        require(\n            balances[msg.sender] >= 0,\n            \"voteToProposal: User doesn't have sufficient token to vote\"\n        );\n        VoteReceipt storage receipt = receipts[proposalId][msg.sender];\n        require((receipt.isVoted == false), \"voteToProposal: You can't vote again\");\n\n        receipt.isVoted = true;\n        receipt.isSupport = vote;\n        receipt.votes = 1;\n        voters[proposalId][proposal.voterCount] = msg.sender;\n        proposal.voterCount++;\n        if (vote) {\n            proposal.favorVotes = proposal.favorVotes.add(1);\n        } else {\n            proposal.againstVotes = proposal.againstVotes.add(1);\n        }\n        receipts[proposalId][msg.sender] = receipt;\n        emit VoteCast(msg.sender, proposalId, vote);\n    }\n\n    function proposalResult(uint256 proposalId) external {\n        require(proposalCount >= proposalId && proposalId > 0,\"declareResult: invalid proposal id\");\n\n        Proposal storage proposal = proposals[proposalId];\n        require(proposal.proposer == msg.sender, \"proposer of the proposal who can declare the proposal result\");\n        require(block.timestamp > proposal.deadLine,\"declareResult: DeadLine has not yet passed\");\n\n        ProposalState _ProposalState = stateOfTheProposal(proposalId);\n        require(_ProposalState != ProposalState.CANCELED, \"declareResult: Prososal is canceled\");\n        require(\n            _ProposalState != ProposalState.ACCEPTED &&_ProposalState != ProposalState.REJECTED,\n            \"declareResult: Result already announced\"\n        );\n        proposal.announced = true;\n    }\n\n    function cancelProposal(uint256 proposalId) external {\n        require(proposalCount >= proposalId && proposalId > 0, \"cancelProposal: proposal id is invalid\");\n\n        Proposal storage proposal = proposals[proposalId];\n        require(msg.sender == proposal.proposer,\"cancelProposal: only admin can cancel the proposal\");\n        require(block.timestamp < proposal.deadLine,\n            \"cancelProposal: not able to cancel, DeadLine crossed\"\n        );\n        ProposalState _ProposalState = stateOfTheProposal(proposalId);\n        require(\n            _ProposalState != ProposalState.CANCELED,\n            \"declareResult: Already in cancel state\"\n        );\n        proposal.canceled = true;\n    }\n\n    function markProposalEnded(uint256 proposalId) external onlyAdmin{\n        require(proposalCount >= proposalId && proposalId > 0,\"declareResult: invalid proposal id\");\n\n        Proposal storage proposal = proposals[proposalId];\n        proposal.deadLine = block.timestamp;\n    }\n\n    function getVotes(uint256 proposalId) public view returns (Vote[] memory) {\n        uint256 voterCount = proposals[proposalId].voterCount;\n        Vote[] memory votes = new Vote[](voterCount);\n        for (uint256 i = 0; i < voterCount; i++) {\n            votes[i] = Vote(\n                voters[proposalId][i],\n                receipts[proposalId][voters[proposalId][i]].isSupport,\n                receipts[proposalId][voters[proposalId][i]].votes\n            );\n        }\n        return votes;\n    }\n}\n\nlibrary SafeMath {\n    function sub(uint256 a, uint256 b) internal pure returns (uint256) {\n        assert(b <= a);\n        return a - b;\n    }\n\n    function add(uint256 a, uint256 b) internal pure returns (uint256) {\n        uint256 c = a + b;\n        assert(c >= a);\n        return c;\n    }\n}",
  "sourcePath": "/home/neosoft/projects/solidity/votingContract/contracts/NeoToken.sol",
  "compiler": {
    "name": "solc",
    "version": "0.8.17+commit.8df45f5f.Emscripten.clang"
  },
  "schemaVersion": "3.4.10",
  "updatedAt": "2023-01-05T14:45:21.692Z",
  "networkType": "ethereum",
  "devdoc": {
    "kind": "dev",
    "methods": {
      "allowance(address,address)": {
        "details": "Returns the remaining number of tokens that `spender` will be allowed to spend on behalf of `owner` through {transferFrom}. This is zero by default. This value changes when {approve} or {transferFrom} are called."
      },
      "approve(address,uint256)": {
        "details": "Sets `amount` as the allowance of `spender` over the caller's tokens. Returns a boolean value indicating whether the operation succeeded. IMPORTANT: Beware that changing an allowance with this method brings the risk that someone may use both the old and the new allowance by unfortunate transaction ordering. One possible solution to mitigate this race condition is to first reduce the spender's allowance to 0 and set the desired value afterwards: https://github.com/ethereum/EIPs/issues/20#issuecomment-263524729 Emits an {Approval} event."
      },
      "balanceOf(address)": {
        "details": "Returns the amount of tokens owned by `account`."
      },
      "totalSupply()": {
        "details": "Returns the amount of tokens in existence."
      },
      "transfer(address,uint256)": {
        "details": "Moves `amount` tokens from the caller's account to `to`. Returns a boolean value indicating whether the operation succeeded. Emits a {Transfer} event."
      },
      "transferFrom(address,address,uint256)": {
        "details": "Moves `amount` tokens from `from` to `to` using the allowance mechanism. `amount` is then deducted from the caller's allowance. Returns a boolean value indicating whether the operation succeeded. Emits a {Transfer} event."
      }
    },
    "version": 1
  },
  "userdoc": {
    "events": {
      "ProposalCreated(uint256,address,string,string,uint256)": {
        "notice": "An event emitted when a new proposal is created"
      },
      "VoteCast(address,uint256,bool)": {
        "notice": "An event emitted when a vote has been cast on a proposal"
      }
    },
    "kind": "user",
    "methods": {},
    "version": 1
  }
}